{
  "contractName": "Escrow1155",
  "abi": [
    {
      "inputs": [
        {
          "internalType": "address",
          "name": "_ERC1155Address",
          "type": "address"
        }
      ],
      "stateMutability": "nonpayable",
      "type": "constructor"
    },
    {
      "anonymous": false,
      "inputs": [
        {
          "indexed": false,
          "internalType": "uint256",
          "name": "",
          "type": "uint256"
        },
        {
          "indexed": false,
          "internalType": "uint256",
          "name": "",
          "type": "uint256"
        }
      ],
      "name": "TokenDepoisted",
      "type": "event"
    },
    {
      "inputs": [],
      "name": "ERC1155Address",
      "outputs": [
        {
          "internalType": "address",
          "name": "",
          "type": "address"
        }
      ],
      "stateMutability": "view",
      "type": "function",
      "constant": true
    },
    {
      "inputs": [],
      "name": "_transactionIdCounter",
      "outputs": [
        {
          "internalType": "uint256",
          "name": "_value",
          "type": "uint256"
        }
      ],
      "stateMutability": "view",
      "type": "function",
      "constant": true
    },
    {
      "inputs": [
        {
          "internalType": "uint256",
          "name": "",
          "type": "uint256"
        }
      ],
      "name": "transactionArray",
      "outputs": [
        {
          "internalType": "uint256",
          "name": "id",
          "type": "uint256"
        },
        {
          "internalType": "address payable",
          "name": "seller",
          "type": "address"
        },
        {
          "internalType": "address payable",
          "name": "buyer",
          "type": "address"
        },
        {
          "internalType": "uint256",
          "name": "tokenID",
          "type": "uint256"
        },
        {
          "internalType": "uint256",
          "name": "amount",
          "type": "uint256"
        },
        {
          "internalType": "uint256",
          "name": "noOfTokens",
          "type": "uint256"
        },
        {
          "internalType": "enum Escrow1155.Status",
          "name": "transactionStatus",
          "type": "uint8"
        },
        {
          "internalType": "bool",
          "name": "buyerCancel",
          "type": "bool"
        },
        {
          "internalType": "bool",
          "name": "sellerCancel",
          "type": "bool"
        }
      ],
      "stateMutability": "view",
      "type": "function",
      "constant": true
    },
    {
      "inputs": [
        {
          "internalType": "address",
          "name": "tokenOwner",
          "type": "address"
        },
        {
          "internalType": "uint256",
          "name": "_tokenID",
          "type": "uint256"
        },
        {
          "internalType": "uint256",
          "name": "_amount",
          "type": "uint256"
        },
        {
          "internalType": "uint256",
          "name": "_noOfTokens",
          "type": "uint256"
        }
      ],
      "name": "depositToken",
      "outputs": [],
      "stateMutability": "nonpayable",
      "type": "function"
    },
    {
      "inputs": [
        {
          "internalType": "uint256",
          "name": "_transactionId",
          "type": "uint256"
        }
      ],
      "name": "depositETH",
      "outputs": [],
      "stateMutability": "payable",
      "type": "function",
      "payable": true
    },
    {
      "inputs": [
        {
          "internalType": "uint256",
          "name": "_transactionId",
          "type": "uint256"
        }
      ],
      "name": "cancelTransaction",
      "outputs": [],
      "stateMutability": "payable",
      "type": "function",
      "payable": true
    },
    {
      "inputs": [
        {
          "internalType": "uint256",
          "name": "_transactionId",
          "type": "uint256"
        }
      ],
      "name": "refundBuyer",
      "outputs": [],
      "stateMutability": "nonpayable",
      "type": "function"
    },
    {
      "inputs": [
        {
          "internalType": "uint256",
          "name": "_transactionId",
          "type": "uint256"
        }
      ],
      "name": "resale",
      "outputs": [],
      "stateMutability": "nonpayable",
      "type": "function"
    },
    {
      "inputs": [
        {
          "internalType": "uint256",
          "name": "_transactionId",
          "type": "uint256"
        }
      ],
      "name": "initiateDelivery",
      "outputs": [],
      "stateMutability": "nonpayable",
      "type": "function"
    },
    {
      "inputs": [
        {
          "internalType": "uint256",
          "name": "_transactionId",
          "type": "uint256"
        }
      ],
      "name": "confirmDelivery",
      "outputs": [],
      "stateMutability": "payable",
      "type": "function",
      "payable": true
    },
    {
      "inputs": [],
      "name": "getBalance",
      "outputs": [
        {
          "internalType": "uint256",
          "name": "balance",
          "type": "uint256"
        }
      ],
      "stateMutability": "view",
      "type": "function",
      "constant": true
    },
    {
      "inputs": [
        {
          "internalType": "uint256",
          "name": "_transactionId",
          "type": "uint256"
        }
      ],
      "name": "getTransactionStatus",
      "outputs": [
        {
          "internalType": "string",
          "name": "",
          "type": "string"
        }
      ],
      "stateMutability": "view",
      "type": "function",
      "constant": true
    },
    {
      "inputs": [
        {
          "internalType": "address",
          "name": "operator",
          "type": "address"
        },
        {
          "internalType": "address",
          "name": "from",
          "type": "address"
        },
        {
          "internalType": "uint256",
          "name": "id",
          "type": "uint256"
        },
        {
          "internalType": "uint256",
          "name": "value",
          "type": "uint256"
        },
        {
          "internalType": "bytes",
          "name": "data",
          "type": "bytes"
        }
      ],
      "name": "onERC1155Received",
      "outputs": [
        {
          "internalType": "bytes4",
          "name": "",
          "type": "bytes4"
        }
      ],
      "stateMutability": "pure",
      "type": "function",
      "constant": true
    },
    {
      "inputs": [
        {
          "internalType": "address",
          "name": "operator",
          "type": "address"
        },
        {
          "internalType": "address",
          "name": "from",
          "type": "address"
        },
        {
          "internalType": "uint256[]",
          "name": "ids",
          "type": "uint256[]"
        },
        {
          "internalType": "uint256[]",
          "name": "values",
          "type": "uint256[]"
        },
        {
          "internalType": "bytes",
          "name": "data",
          "type": "bytes"
        }
      ],
      "name": "onERC1155BatchReceived",
      "outputs": [
        {
          "internalType": "bytes4",
          "name": "",
          "type": "bytes4"
        }
      ],
      "stateMutability": "pure",
      "type": "function",
      "constant": true
    },
    {
      "inputs": [
        {
          "internalType": "bytes4",
          "name": "interfaceId",
          "type": "bytes4"
        }
      ],
      "name": "supportsInterface",
      "outputs": [
        {
          "internalType": "bool",
          "name": "",
          "type": "bool"
        }
      ],
      "stateMutability": "pure",
      "type": "function",
      "constant": true
    }
  ],
  "bytecode": "0x60806040523480156200001157600080fd5b5060405162002e9838038062002e9883398181016040528101906200003791906200011e565b600160008190555080600360006101000a81548173ffffffffffffffffffffffffffffffffffffffff021916908373ffffffffffffffffffffffffffffffffffffffff1602179055506200009760016200009e60201b6200214e1760201c565b5062000150565b6001816000016000828254019250508190555050565b600080fd5b600073ffffffffffffffffffffffffffffffffffffffff82169050919050565b6000620000e682620000b9565b9050919050565b620000f881620000d9565b81146200010457600080fd5b50565b6000815190506200011881620000ed565b92915050565b600060208284031215620001375762000136620000b4565b5b6000620001478482850162000107565b91505092915050565b612d3880620001606000396000f3fe6080604052600436106100e85760003560e01c8063709250c91161008a578063c82ef8fb11610059578063c82ef8fb146102d6578063f23a6e611461031b578063f344815414610358578063fd84cb9714610383576100e8565b8063709250c91461021c57806392f389db1461024757806399c8606114610270578063bc197c8114610299576100e8565b806339292763116100c657806339292763146101715780635358fbda1461019a5780636bbc379d146101b6578063702fd200146101f3576100e8565b806301ffc9a7146100ed57806312065fe01461012a5780633380c0d814610155575b600080fd5b3480156100f957600080fd5b50610114600480360381019061010f9190612262565b61039f565b60405161012191906122aa565b60405180910390f35b34801561013657600080fd5b5061013f6103aa565b60405161014c91906122de565b60405180910390f35b61016f600480360381019061016a9190612325565b6103b2565b005b34801561017d57600080fd5b5061019860048036038101906101939190612325565b610a9e565b005b6101b460048036038101906101af9190612325565b610e81565b005b3480156101c257600080fd5b506101dd60048036038101906101d89190612325565b611245565b6040516101ea91906123eb565b60405180910390f35b3480156101ff57600080fd5b5061021a6004803603810190610215919061246b565b611530565b005b34801561022857600080fd5b506102316117f9565b60405161023e91906124e1565b60405180910390f35b34801561025357600080fd5b5061026e60048036038101906102699190612325565b61181f565b005b34801561027c57600080fd5b5061029760048036038101906102929190612325565b61198e565b005b3480156102a557600080fd5b506102c060048036038101906102bb91906125b7565b611b6c565b6040516102cd91906126a2565b60405180910390f35b3480156102e257600080fd5b506102fd60048036038101906102f89190612325565b611b84565b60405161031299989796959493929190612755565b60405180910390f35b34801561032757600080fd5b50610342600480360381019061033d91906127e2565b611c39565b60405161034f91906126a2565b60405180910390f35b34801561036457600080fd5b5061036d611c68565b60405161037a91906122de565b60405180910390f35b61039d60048036038101906103989190612325565b611c74565b005b600060019050919050565b600047905090565b806002600082815260200190815260200160002060020160009054906101000a900473ffffffffffffffffffffffffffffffffffffffff1673ffffffffffffffffffffffffffffffffffffffff163373ffffffffffffffffffffffffffffffffffffffff16148061048457506002600082815260200190815260200160002060010160009054906101000a900473ffffffffffffffffffffffffffffffffffffffff1673ffffffffffffffffffffffffffffffffffffffff163373ffffffffffffffffffffffffffffffffffffffff16145b6104c3576040517f08c379a00000000000000000000000000000000000000000000000000000000081526004016104ba906128c8565b60405180910390fd5b60006002600084815260200190815260200160002060405180610120016040529081600082015481526020016001820160009054906101000a900473ffffffffffffffffffffffffffffffffffffffff1673ffffffffffffffffffffffffffffffffffffffff1673ffffffffffffffffffffffffffffffffffffffff1681526020016002820160009054906101000a900473ffffffffffffffffffffffffffffffffffffffff1673ffffffffffffffffffffffffffffffffffffffff1673ffffffffffffffffffffffffffffffffffffffff1681526020016003820154815260200160048201548152602001600582015481526020016006820160009054906101000a900460ff1660078111156105dd576105dc6126de565b5b60078111156105ef576105ee6126de565b5b81526020016006820160019054906101000a900460ff161515151581526020016006820160029054906101000a900460ff1615151515815250509050806020015173ffffffffffffffffffffffffffffffffffffffff163373ffffffffffffffffffffffffffffffffffffffff16141561074657600181610100019015159081151581525050600360009054906101000a900473ffffffffffffffffffffffffffffffffffffffff1673ffffffffffffffffffffffffffffffffffffffff1663f242432a303384606001518560a001516040518563ffffffff1660e01b81526004016106de949392919061291f565b600060405180830381600087803b1580156106f857600080fd5b505af115801561070c573d6000803e3d6000fd5b5050505060068160c001906007811115610729576107286126de565b5b9081600781111561073d5761073c6126de565b5b81525050610758565b60018160e00190151590811515815250505b600073ffffffffffffffffffffffffffffffffffffffff16816040015173ffffffffffffffffffffffffffffffffffffffff161461095b5780610100015180156107a357508060e001515b1561092857600360009054906101000a900473ffffffffffffffffffffffffffffffffffffffff1673ffffffffffffffffffffffffffffffffffffffff1663f242432a30836020015184606001518560a001516040518563ffffffff1660e01b815260040161081594939291906129d6565b600060405180830381600087803b15801561082f57600080fd5b505af1158015610843573d6000803e3d6000fd5b50505050806040015173ffffffffffffffffffffffffffffffffffffffff166108fc82608001519081150290604051600060405180830381858888f19350505050158015610895573d6000803e3d6000fd5b5060078160c0019060078111156108af576108ae6126de565b5b908160078111156108c3576108c26126de565b5b815250506000816040019073ffffffffffffffffffffffffffffffffffffffff16908173ffffffffffffffffffffffffffffffffffffffff168152505060008160e001901515908115158152505060008161010001901515908115158152505061095a565b60048160c001906007811115610941576109406126de565b5b90816007811115610955576109546126de565b5b815250505b5b80600260008581526020019081526020016000206000820151816000015560208201518160010160006101000a81548173ffffffffffffffffffffffffffffffffffffffff021916908373ffffffffffffffffffffffffffffffffffffffff16021790555060408201518160020160006101000a81548173ffffffffffffffffffffffffffffffffffffffff021916908373ffffffffffffffffffffffffffffffffffffffff160217905550606082015181600301556080820151816004015560a0820151816005015560c08201518160060160006101000a81548160ff02191690836007811115610a5057610a4f6126de565b5b021790555060e08201518160060160016101000a81548160ff0219169083151502179055506101008201518160060160026101000a81548160ff021916908315150217905550905050505050565b806002600082815260200190815260200160002060010160009054906101000a900473ffffffffffffffffffffffffffffffffffffffff1673ffffffffffffffffffffffffffffffffffffffff163373ffffffffffffffffffffffffffffffffffffffff1614610b43576040517f08c379a0000000000000000000000000000000000000000000000000000000008152600401610b3a90612aa0565b60405180910390fd5b60006002600084815260200190815260200160002060405180610120016040529081600082015481526020016001820160009054906101000a900473ffffffffffffffffffffffffffffffffffffffff1673ffffffffffffffffffffffffffffffffffffffff1673ffffffffffffffffffffffffffffffffffffffff1681526020016002820160009054906101000a900473ffffffffffffffffffffffffffffffffffffffff1673ffffffffffffffffffffffffffffffffffffffff1673ffffffffffffffffffffffffffffffffffffffff1681526020016003820154815260200160048201548152602001600582015481526020016006820160009054906101000a900460ff166007811115610c5d57610c5c6126de565b5b6007811115610c6f57610c6e6126de565b5b81526020016006820160019054906101000a900460ff161515151581526020016006820160029054906101000a900460ff1615151515815250509050806020015173ffffffffffffffffffffffffffffffffffffffff166108fc670de0b6b3a76400008360800151610ce19190612aef565b9081150290604051600060405180830381858888f19350505050158015610d0c573d6000803e3d6000fd5b5060058160c001906007811115610d2657610d256126de565b5b90816007811115610d3a57610d396126de565b5b8152505080600260008581526020019081526020016000206000820151816000015560208201518160010160006101000a81548173ffffffffffffffffffffffffffffffffffffffff021916908373ffffffffffffffffffffffffffffffffffffffff16021790555060408201518160020160006101000a81548173ffffffffffffffffffffffffffffffffffffffff021916908373ffffffffffffffffffffffffffffffffffffffff160217905550606082015181600301556080820151816004015560a0820151816005015560c08201518160060160006101000a81548160ff02191690836007811115610e3357610e326126de565b5b021790555060e08201518160060160016101000a81548160ff0219169083151502179055506101008201518160060160026101000a81548160ff021916908315150217905550905050505050565b600081816007811115610e9757610e966126de565b5b6002600083815260200190815260200160002060060160009054906101000a900460ff166007811115610ecd57610ecc6126de565b5b14610ed757600080fd5b60006002600085815260200190815260200160002060405180610120016040529081600082015481526020016001820160009054906101000a900473ffffffffffffffffffffffffffffffffffffffff1673ffffffffffffffffffffffffffffffffffffffff1673ffffffffffffffffffffffffffffffffffffffff1681526020016002820160009054906101000a900473ffffffffffffffffffffffffffffffffffffffff1673ffffffffffffffffffffffffffffffffffffffff1673ffffffffffffffffffffffffffffffffffffffff1681526020016003820154815260200160048201548152602001600582015481526020016006820160009054906101000a900460ff166007811115610ff157610ff06126de565b5b6007811115611003576110026126de565b5b81526020016006820160019054906101000a900460ff161515151581526020016006820160029054906101000a900460ff161515151581525050905034670de0b6b3a764000082608001516110589190612aef565b14611098576040517f08c379a000000000000000000000000000000000000000000000000000000000815260040161108f90612bbb565b60405180910390fd5b33816040019073ffffffffffffffffffffffffffffffffffffffff16908173ffffffffffffffffffffffffffffffffffffffff168152505060018160c0019060078111156110e9576110e86126de565b5b908160078111156110fd576110fc6126de565b5b8152505080600260008681526020019081526020016000206000820151816000015560208201518160010160006101000a81548173ffffffffffffffffffffffffffffffffffffffff021916908373ffffffffffffffffffffffffffffffffffffffff16021790555060408201518160020160006101000a81548173ffffffffffffffffffffffffffffffffffffffff021916908373ffffffffffffffffffffffffffffffffffffffff160217905550606082015181600301556080820151816004015560a0820151816005015560c08201518160060160006101000a81548160ff021916908360078111156111f6576111f56126de565b5b021790555060e08201518160060160016101000a81548160ff0219169083151502179055506101008201518160060160026101000a81548160ff02191690831515021790555090505050505050565b606060006002600084815260200190815260200160002060060160009054906101000a900460ff16905060006007811115611283576112826126de565b5b816007811115611296576112956126de565b5b14156112da576040518060400160405280601081526020017f546f6b656e73204465706f73697465640000000000000000000000000000000081525091505061152b565b600660078111156112ee576112ed6126de565b5b816007811115611301576113006126de565b5b1415611345576040518060400160405280601381526020017f43616e63656c6c65642062792073656c6c65720000000000000000000000000081525091505061152b565b60016007811115611359576113586126de565b5b81600781111561136c5761136b6126de565b5b14156113b0576040518060400160405280600d81526020017f455448204465706f73697465640000000000000000000000000000000000000081525091505061152b565b600260078111156113c4576113c36126de565b5b8160078111156113d7576113d66126de565b5b141561141b576040518060400160405280601281526020017f44656c697665727920496e69746961746564000000000000000000000000000081525091505061152b565b6005600781111561142f5761142e6126de565b5b816007811115611442576114416126de565b5b1415611486576040518060400160405280601281526020017f43616e63656c6c6564206279206275796572000000000000000000000000000081525091505061152b565b6003600781111561149a576114996126de565b5b8160078111156114ad576114ac6126de565b5b14156114f1576040518060400160405280601081526020017f44656c697665727920537563636573730000000000000000000000000000000081525091505061152b565b6040518060400160405280600a81526020017f496e2044697370757465000000000000000000000000000000000000000000008152509150505b919050565b611538612172565b6115426001612164565b8160000181815250508381606001818152505082816080018181525050818160a001818152505084816020019073ffffffffffffffffffffffffffffffffffffffff16908173ffffffffffffffffffffffffffffffffffffffff168152505060008160c0019060078111156115ba576115b96126de565b5b908160078111156115ce576115cd6126de565b5b81525050600360009054906101000a900473ffffffffffffffffffffffffffffffffffffffff1673ffffffffffffffffffffffffffffffffffffffff1663f242432a863084606001518560a001516040518563ffffffff1660e01b815260040161163b949392919061291f565b600060405180830381600087803b15801561165557600080fd5b505af1158015611669573d6000803e3d6000fd5b505050508060026000836000015181526020019081526020016000206000820151816000015560208201518160010160006101000a81548173ffffffffffffffffffffffffffffffffffffffff021916908373ffffffffffffffffffffffffffffffffffffffff16021790555060408201518160020160006101000a81548173ffffffffffffffffffffffffffffffffffffffff021916908373ffffffffffffffffffffffffffffffffffffffff160217905550606082015181600301556080820151816004015560a0820151816005015560c08201518160060160006101000a81548160ff02191690836007811115611766576117656126de565b5b021790555060e08201518160060160016101000a81548160ff0219169083151502179055506101008201518160060160026101000a81548160ff0219169083151502179055509050506117b9600161214e565b7feeb3f04e167392679bbe84be8f446487d9c39c6ec5eff7c612a6103938c5f0a184846040516117ea929190612bdb565b60405180910390a15050505050565b600360009054906101000a900473ffffffffffffffffffffffffffffffffffffffff1681565b600581816007811115611835576118346126de565b5b6002600083815260200190815260200160002060060160009054906101000a900460ff16600781111561186b5761186a6126de565b5b1461187557600080fd5b826002600082815260200190815260200160002060010160009054906101000a900473ffffffffffffffffffffffffffffffffffffffff1673ffffffffffffffffffffffffffffffffffffffff163373ffffffffffffffffffffffffffffffffffffffff161461191a576040517f08c379a000000000000000000000000000000000000000000000000000000000815260040161191190612aa0565b60405180910390fd5b60006002600086815260200190815260200160002060060160016101000a81548160ff02191690831515021790555060006002600086815260200190815260200160002060060160006101000a81548160ff02191690836007811115611983576119826126de565b5b021790555050505050565b6001818160078111156119a4576119a36126de565b5b6002600083815260200190815260200160002060060160009054906101000a900460ff1660078111156119da576119d96126de565b5b146119e457600080fd5b826002600082815260200190815260200160002060010160009054906101000a900473ffffffffffffffffffffffffffffffffffffffff1673ffffffffffffffffffffffffffffffffffffffff163373ffffffffffffffffffffffffffffffffffffffff1614611a89576040517f08c379a0000000000000000000000000000000000000000000000000000000008152600401611a8090612aa0565b60405180910390fd5b83600015156002600083815260200190815260200160002060060160019054906101000a900460ff161515148015611ae85750600015156002600083815260200190815260200160002060060160029054906101000a900460ff161515145b611b27576040517f08c379a0000000000000000000000000000000000000000000000000000000008152600401611b1e90612c76565b60405180910390fd5b600280600087815260200190815260200160002060060160006101000a81548160ff02191690836007811115611b6057611b5f6126de565b5b02179055505050505050565b600063bc197c8160e01b905098975050505050505050565b60026020528060005260406000206000915090508060000154908060010160009054906101000a900473ffffffffffffffffffffffffffffffffffffffff16908060020160009054906101000a900473ffffffffffffffffffffffffffffffffffffffff16908060030154908060040154908060050154908060060160009054906101000a900460ff16908060060160019054906101000a900460ff16908060060160029054906101000a900460ff16905089565b60007ff23a6e612e1ff4830e658fe43f4e3cb4a5f8170bd5d9e69fb5d7a7fa9e4fdf9790509695505050505050565b60018060000154905081565b600281816007811115611c8a57611c896126de565b5b6002600083815260200190815260200160002060060160009054906101000a900460ff166007811115611cc057611cbf6126de565b5b14611cca57600080fd5b826002600082815260200190815260200160002060020160009054906101000a900473ffffffffffffffffffffffffffffffffffffffff1673ffffffffffffffffffffffffffffffffffffffff163373ffffffffffffffffffffffffffffffffffffffff1614611d6f576040517f08c379a0000000000000000000000000000000000000000000000000000000008152600401611d6690612ce2565b60405180910390fd5b60006002600086815260200190815260200160002060405180610120016040529081600082015481526020016001820160009054906101000a900473ffffffffffffffffffffffffffffffffffffffff1673ffffffffffffffffffffffffffffffffffffffff1673ffffffffffffffffffffffffffffffffffffffff1681526020016002820160009054906101000a900473ffffffffffffffffffffffffffffffffffffffff1673ffffffffffffffffffffffffffffffffffffffff1673ffffffffffffffffffffffffffffffffffffffff1681526020016003820154815260200160048201548152602001600582015481526020016006820160009054906101000a900460ff166007811115611e8957611e886126de565b5b6007811115611e9b57611e9a6126de565b5b81526020016006820160019054906101000a900460ff161515151581526020016006820160029054906101000a900460ff1615151515815250509050600360009054906101000a900473ffffffffffffffffffffffffffffffffffffffff1673ffffffffffffffffffffffffffffffffffffffff1663f242432a30836040015184606001518560a001516040518563ffffffff1660e01b8152600401611f4494939291906129d6565b600060405180830381600087803b158015611f5e57600080fd5b505af1158015611f72573d6000803e3d6000fd5b50505050806020015173ffffffffffffffffffffffffffffffffffffffff166108fc670de0b6b3a76400008360800151611fac9190612aef565b9081150290604051600060405180830381858888f19350505050158015611fd7573d6000803e3d6000fd5b5060038160c001906007811115611ff157611ff06126de565b5b90816007811115612005576120046126de565b5b8152505080600260008781526020019081526020016000206000820151816000015560208201518160010160006101000a81548173ffffffffffffffffffffffffffffffffffffffff021916908373ffffffffffffffffffffffffffffffffffffffff16021790555060408201518160020160006101000a81548173ffffffffffffffffffffffffffffffffffffffff021916908373ffffffffffffffffffffffffffffffffffffffff160217905550606082015181600301556080820151816004015560a0820151816005015560c08201518160060160006101000a81548160ff021916908360078111156120fe576120fd6126de565b5b021790555060e08201518160060160016101000a81548160ff0219169083151502179055506101008201518160060160026101000a81548160ff0219169083151502179055509050505050505050565b6001816000016000828254019250508190555050565b600081600001549050919050565b60405180610120016040528060008152602001600073ffffffffffffffffffffffffffffffffffffffff168152602001600073ffffffffffffffffffffffffffffffffffffffff168152602001600081526020016000815260200160008152602001600060078111156121e8576121e76126de565b5b81526020016000151581526020016000151581525090565b600080fd5b600080fd5b60007fffffffff0000000000000000000000000000000000000000000000000000000082169050919050565b61223f8161220a565b811461224a57600080fd5b50565b60008135905061225c81612236565b92915050565b60006020828403121561227857612277612200565b5b60006122868482850161224d565b91505092915050565b60008115159050919050565b6122a48161228f565b82525050565b60006020820190506122bf600083018461229b565b92915050565b6000819050919050565b6122d8816122c5565b82525050565b60006020820190506122f360008301846122cf565b92915050565b612302816122c5565b811461230d57600080fd5b50565b60008135905061231f816122f9565b92915050565b60006020828403121561233b5761233a612200565b5b600061234984828501612310565b91505092915050565b600081519050919050565b600082825260208201905092915050565b60005b8381101561238c578082015181840152602081019050612371565b8381111561239b576000848401525b50505050565b6000601f19601f8301169050919050565b60006123bd82612352565b6123c7818561235d565b93506123d781856020860161236e565b6123e0816123a1565b840191505092915050565b6000602082019050818103600083015261240581846123b2565b905092915050565b600073ffffffffffffffffffffffffffffffffffffffff82169050919050565b60006124388261240d565b9050919050565b6124488161242d565b811461245357600080fd5b50565b6000813590506124658161243f565b92915050565b6000806000806080858703121561248557612484612200565b5b600061249387828801612456565b94505060206124a487828801612310565b93505060406124b587828801612310565b92505060606124c687828801612310565b91505092959194509250565b6124db8161242d565b82525050565b60006020820190506124f660008301846124d2565b92915050565b600080fd5b600080fd5b600080fd5b60008083601f840112612521576125206124fc565b5b8235905067ffffffffffffffff81111561253e5761253d612501565b5b60208301915083602082028301111561255a57612559612506565b5b9250929050565b60008083601f840112612577576125766124fc565b5b8235905067ffffffffffffffff81111561259457612593612501565b5b6020830191508360018202830111156125b0576125af612506565b5b9250929050565b60008060008060008060008060a0898b0312156125d7576125d6612200565b5b60006125e58b828c01612456565b98505060206125f68b828c01612456565b975050604089013567ffffffffffffffff81111561261757612616612205565b5b6126238b828c0161250b565b9650965050606089013567ffffffffffffffff81111561264657612645612205565b5b6126528b828c0161250b565b9450945050608089013567ffffffffffffffff81111561267557612674612205565b5b6126818b828c01612561565b92509250509295985092959890939650565b61269c8161220a565b82525050565b60006020820190506126b76000830184612693565b92915050565b60006126c88261240d565b9050919050565b6126d8816126bd565b82525050565b7f4e487b7100000000000000000000000000000000000000000000000000000000600052602160045260246000fd5b6008811061271e5761271d6126de565b5b50565b600081905061272f8261270d565b919050565b600061273f82612721565b9050919050565b61274f81612734565b82525050565b60006101208201905061276b600083018c6122cf565b612778602083018b6126cf565b612785604083018a6126cf565b61279260608301896122cf565b61279f60808301886122cf565b6127ac60a08301876122cf565b6127b960c0830186612746565b6127c660e083018561229b565b6127d461010083018461229b565b9a9950505050505050505050565b60008060008060008060a087890312156127ff576127fe612200565b5b600061280d89828a01612456565b965050602061281e89828a01612456565b955050604061282f89828a01612310565b945050606061284089828a01612310565b935050608087013567ffffffffffffffff81111561286157612860612205565b5b61286d89828a01612561565b92509250509295509295509295565b7f43616c6c6572206973206e6f74206275796572206f722073656c6c65722e0000600082015250565b60006128b2601e8361235d565b91506128bd8261287c565b602082019050919050565b600060208201905081810360008301526128e1816128a5565b9050919050565b600082825260208201905092915050565b50565b60006129096000836128e8565b9150612914826128f9565b600082019050919050565b600060a08201905061293460008301876124d2565b61294160208301866124d2565b61294e60408301856122cf565b61295b60608301846122cf565b818103608083015261296c816128fc565b905095945050505050565b6000819050919050565b600061299c6129976129928461240d565b612977565b61240d565b9050919050565b60006129ae82612981565b9050919050565b60006129c0826129a3565b9050919050565b6129d0816129b5565b82525050565b600060a0820190506129eb60008301876124d2565b6129f860208301866129c7565b612a0560408301856122cf565b612a1260608301846122cf565b8181036080830152612a23816128fc565b905095945050505050565b7f43616c6c65722061646472657373206973206e6f74207468652073656c6c657260008201527f2e00000000000000000000000000000000000000000000000000000000000000602082015250565b6000612a8a60218361235d565b9150612a9582612a2e565b604082019050919050565b60006020820190508181036000830152612ab981612a7d565b9050919050565b7f4e487b7100000000000000000000000000000000000000000000000000000000600052601160045260246000fd5b6000612afa826122c5565b9150612b05836122c5565b9250817fffffffffffffffffffffffffffffffffffffffffffffffffffffffffffffffff0483118215151615612b3e57612b3d612ac0565b5b828202905092915050565b7f416d6f756e74206d75737420746f20657175616c20746f2073656c6c696e672060008201527f7072696365206f66207468652070726f70657274792e00000000000000000000602082015250565b6000612ba560368361235d565b9150612bb082612b49565b604082019050919050565b60006020820190508181036000830152612bd481612b98565b9050919050565b6000604082019050612bf060008301856122cf565b612bfd60208301846122cf565b9392505050565b7f456974686572206275796572206f722073656c6c65722063616e63656c6c656460008201527f206465616c2e0000000000000000000000000000000000000000000000000000602082015250565b6000612c6060268361235d565b9150612c6b82612c04565b604082019050919050565b60006020820190508181036000830152612c8f81612c53565b9050919050565b7f43616c6c65722061646472657373206973206e6f74207468652062757965722e600082015250565b6000612ccc60208361235d565b9150612cd782612c96565b602082019050919050565b60006020820190508181036000830152612cfb81612cbf565b905091905056fea264697066735822122068f1ee8ab5c2b256debb5d393db7c171aa73e254be11f5602f1743cf4ded820d64736f6c63430008090033",
  "immutableReferences": {},
  "source": "// SPDX-License-Identifier: MIT\r\npragma solidity ^0.8.0;\r\n\r\nimport \"@openzeppelin/contracts/token/ERC1155/ERC1155.sol\";\r\nimport \"@openzeppelin/contracts/token/ERC1155/IERC1155Receiver.sol\";\r\nimport \"@openzeppelin/contracts/security/ReentrancyGuard.sol\";\r\nimport \"hardhat/console.sol\";\r\nimport \"@openzeppelin/contracts/utils/Counters.sol\";\r\n\r\ncontract Escrow1155 is IERC1155Receiver, ReentrancyGuard {\r\n    using Counters for Counters.Counter;\r\n    Counters.Counter public _transactionIdCounter;\r\n\r\n    struct Transaction {\r\n        uint256 id;\r\n        address payable seller;\r\n        address payable buyer;\r\n        uint256 tokenID;\r\n        uint256 amount;\r\n        uint256 noOfTokens;\r\n        Status transactionStatus;\r\n        bool buyerCancel;\r\n        bool sellerCancel;\r\n    }\r\n\r\n    enum Status {\r\n        DEPOSITE,\r\n        PAYMENT,\r\n        DELIVERY,\r\n        CONFIRMED,\r\n        DISPUTTED,\r\n        REFUND,\r\n        WITHDRAWED,\r\n        CLOSED\r\n    }\r\n\r\n    mapping(uint256 => Transaction) public transactionArray;\r\n\r\n    address public ERC1155Address;\r\n    event TokenDepoisted(uint256, uint256);\r\n\r\n    constructor(address _ERC1155Address) {\r\n        ERC1155Address = _ERC1155Address;\r\n        _transactionIdCounter.increment();\r\n    }\r\n\r\n    function depositToken(\r\n        address tokenOwner,\r\n        uint256 _tokenID,\r\n        uint256 _amount,\r\n        uint256 _noOfTokens\r\n    ) public {\r\n        Transaction memory txn;\r\n        txn.id = _transactionIdCounter.current();\r\n        txn.tokenID = _tokenID;\r\n        txn.amount = _amount;\r\n        txn.noOfTokens = _noOfTokens;\r\n        txn.seller = payable(tokenOwner);\r\n        txn.transactionStatus = Status.DEPOSITE;\r\n\r\n        ERC1155(ERC1155Address).safeTransferFrom(\r\n            tokenOwner,\r\n            address(this),\r\n            txn.tokenID,\r\n            txn.noOfTokens,\r\n            \"\"\r\n        );\r\n        transactionArray[txn.id] = txn;\r\n        _transactionIdCounter.increment();\r\n\r\n        emit TokenDepoisted(_tokenID, _amount);\r\n    }\r\n\r\n    function depositETH(\r\n        uint256 _transactionId\r\n    ) public payable currentStatus(Status.DEPOSITE, _transactionId) {\r\n        Transaction memory txn = transactionArray[_transactionId];\r\n        require(\r\n            txn.amount * (10 ** 18) == msg.value,\r\n            \"Amount must to equal to selling price of the property.\"\r\n        );\r\n        txn.buyer = payable(msg.sender);\r\n        txn.transactionStatus = Status.PAYMENT;\r\n        transactionArray[_transactionId] = txn;\r\n    }\r\n\r\n    function cancelTransaction(\r\n        uint256 _transactionId\r\n    ) public payable BuyerOrSeller(_transactionId) {\r\n        Transaction memory txn = transactionArray[_transactionId];\r\n        if (msg.sender == txn.seller) {\r\n            txn.sellerCancel = true;\r\n            ERC1155(ERC1155Address).safeTransferFrom(\r\n                address(this),\r\n                address(msg.sender),\r\n                txn.tokenID,\r\n                txn.noOfTokens,\r\n                \"\"\r\n            );\r\n            txn.transactionStatus = Status.WITHDRAWED;\r\n        } else {\r\n            txn.buyerCancel = true;\r\n        }\r\n\r\n        if (txn.buyer != address(0x0)) {\r\n            if (txn.sellerCancel && txn.buyerCancel) {\r\n                ERC1155(ERC1155Address).safeTransferFrom(\r\n                    address(this),\r\n                    txn.seller,\r\n                    txn.tokenID,\r\n                    txn.noOfTokens,\r\n                    \"\"\r\n                );\r\n                txn.buyer.transfer(txn.amount);\r\n                txn.transactionStatus = Status.CLOSED;\r\n                txn.buyer = payable(address(0x0));\r\n                txn.buyerCancel = false;\r\n                txn.sellerCancel = false;\r\n            } else {\r\n                txn.transactionStatus = Status.DISPUTTED;\r\n            }\r\n        }\r\n        transactionArray[_transactionId] = txn;\r\n    }\r\n\r\n    function refundBuyer(\r\n        uint256 _transactionId\r\n    ) public onlySeller(_transactionId) {\r\n        Transaction memory txn = transactionArray[_transactionId];\r\n        payable(txn.seller).transfer((txn.amount * (10 ** 18)));\r\n\r\n        //require(success, \"Failed to refund to buyer.\");\r\n        txn.transactionStatus = Status.REFUND;\r\n        transactionArray[_transactionId] = txn;\r\n    }\r\n\r\n    function resale(\r\n        uint256 _transactionId\r\n    )\r\n        public\r\n        currentStatus(Status.REFUND, _transactionId)\r\n        onlySeller(_transactionId)\r\n    {\r\n        transactionArray[_transactionId].buyerCancel = false;\r\n        transactionArray[_transactionId].transactionStatus = Status.DEPOSITE;\r\n    }\r\n\r\n    function initiateDelivery(\r\n        uint256 _transactionId\r\n    )\r\n        public\r\n        currentStatus(Status.PAYMENT, _transactionId)\r\n        onlySeller(_transactionId)\r\n        noDispute(_transactionId)\r\n    {\r\n        transactionArray[_transactionId].transactionStatus = Status.DELIVERY;\r\n    }\r\n\r\n    function confirmDelivery(\r\n        uint256 _transactionId\r\n    )\r\n        public\r\n        payable\r\n        currentStatus(Status.DELIVERY, _transactionId)\r\n        onlyBuyer(_transactionId)\r\n    {\r\n        Transaction memory txn = transactionArray[_transactionId];\r\n        ERC1155(ERC1155Address).safeTransferFrom(\r\n            address(this),\r\n            txn.buyer,\r\n            txn.tokenID,\r\n            txn.noOfTokens,\r\n            \"\"\r\n        );\r\n        payable(txn.seller).transfer((txn.amount * (10 ** 18)));\r\n        // require(success, \"Failed to transfer amount to seller.\");\r\n        txn.transactionStatus = Status.CONFIRMED;\r\n        transactionArray[_transactionId] = txn;\r\n    }\r\n\r\n    function getBalance() public view returns (uint256 balance) {\r\n        return address(this).balance;\r\n    }\r\n\r\n    function getTransactionStatus(\r\n        uint256 _transactionId\r\n    ) public view returns (string memory) {\r\n        Status temp = transactionArray[_transactionId].transactionStatus;\r\n        if (temp == Status.DEPOSITE) return \"Tokens Deposited\";\r\n        else if (temp == Status.WITHDRAWED) return \"Cancelled by seller\";\r\n        else if (temp == Status.PAYMENT) return \"ETH Deposited\";\r\n        else if (temp == Status.DELIVERY) return \"Delivery Initiated\";\r\n        else if (temp == Status.REFUND) return \"Cancelled by buyer\";\r\n        else if (temp == Status.CONFIRMED) return \"Delivery Success\";\r\n        else return \"In Dispute\";\r\n    }\r\n\r\n    function onERC1155Received(\r\n        address operator,\r\n        address from,\r\n        uint256 id,\r\n        uint256 value,\r\n        bytes calldata data\r\n    ) external pure override returns (bytes4) {\r\n        return\r\n            bytes4(\r\n                keccak256(\r\n                    \"onERC1155Received(address,address,uint256,uint256,bytes)\"\r\n                )\r\n            );\r\n    }\r\n\r\n    function onERC1155BatchReceived(\r\n        address operator,\r\n        address from,\r\n        uint256[] calldata ids,\r\n        uint256[] calldata values,\r\n        bytes calldata data\r\n    ) external pure override returns (bytes4) {\r\n        return this.onERC1155BatchReceived.selector;\r\n    }\r\n\r\n    function supportsInterface(\r\n        bytes4 interfaceId\r\n    ) external pure returns (bool) {\r\n        return true;\r\n    }\r\n\r\n    modifier condition(bool _condition) {\r\n        require(_condition);\r\n        _;\r\n    }\r\n\r\n    modifier onlySeller(uint256 _transactionId) {\r\n        require(\r\n            msg.sender == transactionArray[_transactionId].seller,\r\n            \"Caller address is not the seller.\"\r\n        );\r\n        _;\r\n    }\r\n\r\n    modifier onlyBuyer(uint256 _transactionId) {\r\n        require(\r\n            msg.sender == transactionArray[_transactionId].buyer,\r\n            \"Caller address is not the buyer.\"\r\n        );\r\n        _;\r\n    }\r\n\r\n    modifier noDispute(uint256 _transactionId) {\r\n        require(\r\n            transactionArray[_transactionId].buyerCancel == false &&\r\n                transactionArray[_transactionId].sellerCancel == false,\r\n            \"Either buyer or seller cancelled deal.\"\r\n        );\r\n        _;\r\n    }\r\n\r\n    modifier BuyerOrSeller(uint256 _transactionId) {\r\n        require(\r\n            msg.sender == transactionArray[_transactionId].buyer ||\r\n                msg.sender == transactionArray[_transactionId].seller,\r\n            \"Caller is not buyer or seller.\"\r\n        );\r\n        _;\r\n    }\r\n\r\n    modifier currentStatus(Status _state, uint256 _transactionId) {\r\n        require(transactionArray[_transactionId].transactionStatus == _state);\r\n        _;\r\n    }\r\n}\r\n",
  "sourcePath": "C:\\Users\\admin\\Desktop\\react\\RealEstateFNFT\\backend\\contracts\\Escrow1155.sol",
  "compiler": {
    "name": "solc",
    "version": "0.8.9+commit.e5eed63a.Emscripten.clang"
  },
  "schemaVersion": "3.4.3",
  "updatedAt": "2023-07-03T18:30:25.123Z",
  "networkType": "ethereum",
  "devdoc": {
    "kind": "dev",
    "methods": {
      "onERC1155BatchReceived(address,address,uint256[],uint256[],bytes)": {
        "details": "Handles the receipt of a multiple ERC1155 token types. This function is called at the end of a `safeBatchTransferFrom` after the balances have been updated. NOTE: To accept the transfer(s), this must return `bytes4(keccak256(\"onERC1155BatchReceived(address,address,uint256[],uint256[],bytes)\"))` (i.e. 0xbc197c81, or its own function selector).",
        "params": {
          "data": "Additional data with no specified format",
          "from": "The address which previously owned the token",
          "ids": "An array containing ids of each token being transferred (order and length must match values array)",
          "operator": "The address which initiated the batch transfer (i.e. msg.sender)",
          "values": "An array containing amounts of each token being transferred (order and length must match ids array)"
        },
        "returns": {
          "_0": "`bytes4(keccak256(\"onERC1155BatchReceived(address,address,uint256[],uint256[],bytes)\"))` if transfer is allowed"
        }
      },
      "onERC1155Received(address,address,uint256,uint256,bytes)": {
        "details": "Handles the receipt of a single ERC1155 token type. This function is called at the end of a `safeTransferFrom` after the balance has been updated. NOTE: To accept the transfer, this must return `bytes4(keccak256(\"onERC1155Received(address,address,uint256,uint256,bytes)\"))` (i.e. 0xf23a6e61, or its own function selector).",
        "params": {
          "data": "Additional data with no specified format",
          "from": "The address which previously owned the token",
          "id": "The ID of the token being transferred",
          "operator": "The address which initiated the transfer (i.e. msg.sender)",
          "value": "The amount of tokens being transferred"
        },
        "returns": {
          "_0": "`bytes4(keccak256(\"onERC1155Received(address,address,uint256,uint256,bytes)\"))` if transfer is allowed"
        }
      },
      "supportsInterface(bytes4)": {
        "details": "Returns true if this contract implements the interface defined by `interfaceId`. See the corresponding https://eips.ethereum.org/EIPS/eip-165#how-interfaces-are-identified[EIP section] to learn more about how these ids are created. This function call must use less than 30 000 gas."
      }
    },
    "version": 1
  },
  "userdoc": {
    "kind": "user",
    "methods": {},
    "version": 1
  }
}