{
  "contractName": "RNFT",
  "abi": [
    {
      "inputs": [],
      "stateMutability": "nonpayable",
      "type": "constructor"
    },
    {
      "anonymous": false,
      "inputs": [
        {
          "indexed": true,
          "internalType": "address",
          "name": "account",
          "type": "address"
        },
        {
          "indexed": true,
          "internalType": "address",
          "name": "operator",
          "type": "address"
        },
        {
          "indexed": false,
          "internalType": "bool",
          "name": "approved",
          "type": "bool"
        }
      ],
      "name": "ApprovalForAll",
      "type": "event"
    },
    {
      "anonymous": false,
      "inputs": [
        {
          "indexed": false,
          "internalType": "uint256",
          "name": "tokenId",
          "type": "uint256"
        },
        {
          "indexed": false,
          "internalType": "uint256",
          "name": "noOfFractions",
          "type": "uint256"
        }
      ],
      "name": "FractionsForSale",
      "type": "event"
    },
    {
      "anonymous": false,
      "inputs": [
        {
          "indexed": false,
          "internalType": "address",
          "name": "to",
          "type": "address"
        },
        {
          "indexed": false,
          "internalType": "uint256",
          "name": "tokenId",
          "type": "uint256"
        },
        {
          "indexed": false,
          "internalType": "uint256",
          "name": "price",
          "type": "uint256"
        }
      ],
      "name": "NFTCreated",
      "type": "event"
    },
    {
      "anonymous": false,
      "inputs": [
        {
          "indexed": false,
          "internalType": "uint256",
          "name": "tokenId",
          "type": "uint256"
        },
        {
          "indexed": false,
          "internalType": "bool",
          "name": "isForSale",
          "type": "bool"
        }
      ],
      "name": "NFTForSale",
      "type": "event"
    },
    {
      "anonymous": false,
      "inputs": [
        {
          "indexed": false,
          "internalType": "address",
          "name": "to",
          "type": "address"
        },
        {
          "indexed": false,
          "internalType": "uint256",
          "name": "tokenId",
          "type": "uint256"
        },
        {
          "indexed": false,
          "internalType": "uint256",
          "name": "noOfFractions",
          "type": "uint256"
        }
      ],
      "name": "NFTFractioned",
      "type": "event"
    },
    {
      "anonymous": false,
      "inputs": [
        {
          "indexed": true,
          "internalType": "address",
          "name": "operator",
          "type": "address"
        },
        {
          "indexed": true,
          "internalType": "address",
          "name": "from",
          "type": "address"
        },
        {
          "indexed": true,
          "internalType": "address",
          "name": "to",
          "type": "address"
        },
        {
          "indexed": false,
          "internalType": "uint256[]",
          "name": "ids",
          "type": "uint256[]"
        },
        {
          "indexed": false,
          "internalType": "uint256[]",
          "name": "values",
          "type": "uint256[]"
        }
      ],
      "name": "TransferBatch",
      "type": "event"
    },
    {
      "anonymous": false,
      "inputs": [
        {
          "indexed": true,
          "internalType": "address",
          "name": "operator",
          "type": "address"
        },
        {
          "indexed": true,
          "internalType": "address",
          "name": "from",
          "type": "address"
        },
        {
          "indexed": true,
          "internalType": "address",
          "name": "to",
          "type": "address"
        },
        {
          "indexed": false,
          "internalType": "uint256",
          "name": "id",
          "type": "uint256"
        },
        {
          "indexed": false,
          "internalType": "uint256",
          "name": "value",
          "type": "uint256"
        }
      ],
      "name": "TransferSingle",
      "type": "event"
    },
    {
      "anonymous": false,
      "inputs": [
        {
          "indexed": false,
          "internalType": "string",
          "name": "value",
          "type": "string"
        },
        {
          "indexed": true,
          "internalType": "uint256",
          "name": "id",
          "type": "uint256"
        }
      ],
      "name": "URI",
      "type": "event"
    },
    {
      "inputs": [],
      "name": "_fractionIdCounter",
      "outputs": [
        {
          "internalType": "uint256",
          "name": "_value",
          "type": "uint256"
        }
      ],
      "stateMutability": "view",
      "type": "function",
      "constant": true
    },
    {
      "inputs": [],
      "name": "_tokenIdCounter",
      "outputs": [
        {
          "internalType": "uint256",
          "name": "_value",
          "type": "uint256"
        }
      ],
      "stateMutability": "view",
      "type": "function",
      "constant": true
    },
    {
      "inputs": [
        {
          "internalType": "address",
          "name": "account",
          "type": "address"
        },
        {
          "internalType": "uint256",
          "name": "id",
          "type": "uint256"
        }
      ],
      "name": "balanceOf",
      "outputs": [
        {
          "internalType": "uint256",
          "name": "",
          "type": "uint256"
        }
      ],
      "stateMutability": "view",
      "type": "function",
      "constant": true
    },
    {
      "inputs": [
        {
          "internalType": "address[]",
          "name": "accounts",
          "type": "address[]"
        },
        {
          "internalType": "uint256[]",
          "name": "ids",
          "type": "uint256[]"
        }
      ],
      "name": "balanceOfBatch",
      "outputs": [
        {
          "internalType": "uint256[]",
          "name": "",
          "type": "uint256[]"
        }
      ],
      "stateMutability": "view",
      "type": "function",
      "constant": true
    },
    {
      "inputs": [
        {
          "internalType": "address",
          "name": "account",
          "type": "address"
        },
        {
          "internalType": "uint256",
          "name": "id",
          "type": "uint256"
        },
        {
          "internalType": "uint256",
          "name": "value",
          "type": "uint256"
        }
      ],
      "name": "burn",
      "outputs": [],
      "stateMutability": "nonpayable",
      "type": "function"
    },
    {
      "inputs": [
        {
          "internalType": "address",
          "name": "account",
          "type": "address"
        },
        {
          "internalType": "uint256[]",
          "name": "ids",
          "type": "uint256[]"
        },
        {
          "internalType": "uint256[]",
          "name": "values",
          "type": "uint256[]"
        }
      ],
      "name": "burnBatch",
      "outputs": [],
      "stateMutability": "nonpayable",
      "type": "function"
    },
    {
      "inputs": [
        {
          "internalType": "uint256",
          "name": "id",
          "type": "uint256"
        }
      ],
      "name": "exists",
      "outputs": [
        {
          "internalType": "bool",
          "name": "",
          "type": "bool"
        }
      ],
      "stateMutability": "view",
      "type": "function",
      "constant": true
    },
    {
      "inputs": [
        {
          "internalType": "address",
          "name": "account",
          "type": "address"
        },
        {
          "internalType": "address",
          "name": "operator",
          "type": "address"
        }
      ],
      "name": "isApprovedForAll",
      "outputs": [
        {
          "internalType": "bool",
          "name": "",
          "type": "bool"
        }
      ],
      "stateMutability": "view",
      "type": "function",
      "constant": true
    },
    {
      "inputs": [
        {
          "internalType": "address",
          "name": "from",
          "type": "address"
        },
        {
          "internalType": "address",
          "name": "to",
          "type": "address"
        },
        {
          "internalType": "uint256[]",
          "name": "ids",
          "type": "uint256[]"
        },
        {
          "internalType": "uint256[]",
          "name": "amounts",
          "type": "uint256[]"
        },
        {
          "internalType": "bytes",
          "name": "data",
          "type": "bytes"
        }
      ],
      "name": "safeBatchTransferFrom",
      "outputs": [],
      "stateMutability": "nonpayable",
      "type": "function"
    },
    {
      "inputs": [
        {
          "internalType": "address",
          "name": "from",
          "type": "address"
        },
        {
          "internalType": "address",
          "name": "to",
          "type": "address"
        },
        {
          "internalType": "uint256",
          "name": "id",
          "type": "uint256"
        },
        {
          "internalType": "uint256",
          "name": "amount",
          "type": "uint256"
        },
        {
          "internalType": "bytes",
          "name": "data",
          "type": "bytes"
        }
      ],
      "name": "safeTransferFrom",
      "outputs": [],
      "stateMutability": "nonpayable",
      "type": "function"
    },
    {
      "inputs": [
        {
          "internalType": "address",
          "name": "operator",
          "type": "address"
        },
        {
          "internalType": "bool",
          "name": "approved",
          "type": "bool"
        }
      ],
      "name": "setApprovalForAll",
      "outputs": [],
      "stateMutability": "nonpayable",
      "type": "function"
    },
    {
      "inputs": [
        {
          "internalType": "bytes4",
          "name": "interfaceId",
          "type": "bytes4"
        }
      ],
      "name": "supportsInterface",
      "outputs": [
        {
          "internalType": "bool",
          "name": "",
          "type": "bool"
        }
      ],
      "stateMutability": "view",
      "type": "function",
      "constant": true
    },
    {
      "inputs": [
        {
          "internalType": "uint256",
          "name": "",
          "type": "uint256"
        }
      ],
      "name": "tokenIdVsToken",
      "outputs": [
        {
          "internalType": "uint256",
          "name": "id",
          "type": "uint256"
        },
        {
          "internalType": "address",
          "name": "owner",
          "type": "address"
        },
        {
          "internalType": "uint256",
          "name": "price",
          "type": "uint256"
        },
        {
          "internalType": "uint256",
          "name": "fractionId",
          "type": "uint256"
        },
        {
          "internalType": "uint256",
          "name": "totalFractions",
          "type": "uint256"
        },
        {
          "internalType": "uint256",
          "name": "fractionsOwned",
          "type": "uint256"
        },
        {
          "internalType": "uint256",
          "name": "pricePerFraction",
          "type": "uint256"
        },
        {
          "internalType": "bool",
          "name": "forSale",
          "type": "bool"
        }
      ],
      "stateMutability": "view",
      "type": "function",
      "constant": true
    },
    {
      "inputs": [
        {
          "internalType": "uint256",
          "name": "id",
          "type": "uint256"
        }
      ],
      "name": "totalSupply",
      "outputs": [
        {
          "internalType": "uint256",
          "name": "",
          "type": "uint256"
        }
      ],
      "stateMutability": "view",
      "type": "function",
      "constant": true
    },
    {
      "inputs": [
        {
          "internalType": "uint256",
          "name": "",
          "type": "uint256"
        }
      ],
      "name": "uri",
      "outputs": [
        {
          "internalType": "string",
          "name": "",
          "type": "string"
        }
      ],
      "stateMutability": "view",
      "type": "function",
      "constant": true
    },
    {
      "inputs": [
        {
          "internalType": "string",
          "name": "newuri",
          "type": "string"
        }
      ],
      "name": "setURI",
      "outputs": [],
      "stateMutability": "nonpayable",
      "type": "function"
    },
    {
      "inputs": [
        {
          "internalType": "address",
          "name": "to",
          "type": "address"
        },
        {
          "internalType": "uint256",
          "name": "price",
          "type": "uint256"
        }
      ],
      "name": "createNFT",
      "outputs": [],
      "stateMutability": "nonpayable",
      "type": "function"
    },
    {
      "inputs": [
        {
          "internalType": "uint256",
          "name": "_tokenId",
          "type": "uint256"
        },
        {
          "internalType": "uint256",
          "name": "_noOfFractions",
          "type": "uint256"
        }
      ],
      "name": "createFractions",
      "outputs": [],
      "stateMutability": "nonpayable",
      "type": "function"
    },
    {
      "inputs": [
        {
          "internalType": "uint256",
          "name": "_tokenId",
          "type": "uint256"
        }
      ],
      "name": "claimNFT",
      "outputs": [],
      "stateMutability": "payable",
      "type": "function",
      "payable": true
    },
    {
      "inputs": [
        {
          "internalType": "uint256",
          "name": "_tokenId",
          "type": "uint256"
        }
      ],
      "name": "depositeFractions",
      "outputs": [],
      "stateMutability": "nonpayable",
      "type": "function"
    },
    {
      "inputs": [
        {
          "internalType": "uint256",
          "name": "_tokenId",
          "type": "uint256"
        }
      ],
      "name": "sellToken",
      "outputs": [],
      "stateMutability": "nonpayable",
      "type": "function"
    },
    {
      "inputs": [
        {
          "internalType": "uint256",
          "name": "_tokenId",
          "type": "uint256"
        },
        {
          "internalType": "uint256",
          "name": "_noOfTokens",
          "type": "uint256"
        }
      ],
      "name": "sellFractions",
      "outputs": [],
      "stateMutability": "payable",
      "type": "function",
      "payable": true
    },
    {
      "inputs": [
        {
          "internalType": "address",
          "name": "_escrowContractAddress",
          "type": "address"
        }
      ],
      "name": "setEscrowAddress",
      "outputs": [],
      "stateMutability": "nonpayable",
      "type": "function"
    },
    {
      "inputs": [
        {
          "internalType": "address",
          "name": "operator",
          "type": "address"
        },
        {
          "internalType": "address",
          "name": "from",
          "type": "address"
        },
        {
          "internalType": "uint256",
          "name": "id",
          "type": "uint256"
        },
        {
          "internalType": "uint256",
          "name": "value",
          "type": "uint256"
        },
        {
          "internalType": "bytes",
          "name": "data",
          "type": "bytes"
        }
      ],
      "name": "onERC1155Received",
      "outputs": [
        {
          "internalType": "bytes4",
          "name": "",
          "type": "bytes4"
        }
      ],
      "stateMutability": "pure",
      "type": "function",
      "constant": true
    },
    {
      "inputs": [
        {
          "internalType": "address",
          "name": "operator",
          "type": "address"
        },
        {
          "internalType": "address",
          "name": "from",
          "type": "address"
        },
        {
          "internalType": "uint256[]",
          "name": "ids",
          "type": "uint256[]"
        },
        {
          "internalType": "uint256[]",
          "name": "values",
          "type": "uint256[]"
        },
        {
          "internalType": "bytes",
          "name": "data",
          "type": "bytes"
        }
      ],
      "name": "onERC1155BatchReceived",
      "outputs": [
        {
          "internalType": "bytes4",
          "name": "",
          "type": "bytes4"
        }
      ],
      "stateMutability": "pure",
      "type": "function",
      "constant": true
    },
    {
      "inputs": [
        {
          "internalType": "address",
          "name": "owner",
          "type": "address"
        },
        {
          "internalType": "address",
          "name": "operator",
          "type": "address"
        },
        {
          "internalType": "uint256",
          "name": "_tokenId",
          "type": "uint256"
        },
        {
          "internalType": "bool",
          "name": "approved",
          "type": "bool"
        }
      ],
      "name": "setApproval",
      "outputs": [],
      "stateMutability": "nonpayable",
      "type": "function"
    }
  ],
  "bytecode": "0x60806040523480156200001157600080fd5b50604051806020016040528060008152506200003381620000a960201b60201c565b5033600460006101000a81548173ffffffffffffffffffffffffffffffffffffffff021916908373ffffffffffffffffffffffffffffffffffffffff1602179055506200008c6007620000c560201b62001e4f1760201c565b620000a36008620000c560201b62001e4f1760201c565b620001f0565b8060029080519060200190620000c1929190620000db565b5050565b6001816000016000828254019250508190555050565b828054620000e990620001ba565b90600052602060002090601f0160209004810192826200010d576000855562000159565b82601f106200012857805160ff191683800117855562000159565b8280016001018555821562000159579182015b82811115620001585782518255916020019190600101906200013b565b5b5090506200016891906200016c565b5090565b5b80821115620001875760008160009055506001016200016d565b5090565b7f4e487b7100000000000000000000000000000000000000000000000000000000600052602260045260246000fd5b60006002820490506001821680620001d357607f821691505b60208210811415620001ea57620001e96200018b565b5b50919050565b61534e80620002006000396000f3fe6080604052600436106101805760003560e01c806382b9000f116100d1578063c11c956c1161008a578063f23a6e6111610064578063f23a6e61146105bd578063f242432a146105fa578063f5298aca14610623578063fe5c873a1461064c57610180565b8063c11c956c1461052e578063ddeb63b514610557578063e985e9c51461058057610180565b806382b9000f1461041b57806384c4bd4b14610437578063a22cb46514610462578063a28fdde01461048b578063bc197c81146104b4578063bd85b039146104f157610180565b80632eb2c2d61161013e5780634f558e79116101185780634f558e79146103485780635145802a1461038557806369ed2d87146103ae5780636b20c454146103f257610180565b80632eb2c2d6146102b957806349a7b4ac146102e25780634e1273f41461030b57610180565b8062fdd58e1461018557806301ffc9a7146101c257806302fe5305146101ff5780630e89341c14610228578063159688a6146102655780632397e4d714610290575b600080fd5b34801561019157600080fd5b506101ac60048036038101906101a7919061358d565b610668565b6040516101b991906135dc565b60405180910390f35b3480156101ce57600080fd5b506101e960048036038101906101e4919061364f565b610731565b6040516101f69190613697565b60405180910390f35b34801561020b57600080fd5b50610226600480360381019061022191906137f8565b610813565b005b34801561023457600080fd5b5061024f600480360381019061024a9190613841565b6108af565b60405161025c91906138f6565b60405180910390f35b34801561027157600080fd5b5061027a610943565b60405161028791906135dc565b60405180910390f35b34801561029c57600080fd5b506102b760048036038101906102b29190613841565b61094f565b005b3480156102c557600080fd5b506102e060048036038101906102db9190613a81565b610a8d565b005b3480156102ee57600080fd5b5061030960048036038101906103049190613b50565b610b2e565b005b34801561031757600080fd5b50610332600480360381019061032d9190613c53565b610f29565b60405161033f9190613d89565b60405180910390f35b34801561035457600080fd5b5061036f600480360381019061036a9190613841565b611042565b60405161037c9190613697565b60405180910390f35b34801561039157600080fd5b506103ac60048036038101906103a79190613dd7565b611056565b005b3480156103ba57600080fd5b506103d560048036038101906103d09190613841565b611160565b6040516103e9989796959493929190613e4d565b60405180910390f35b3480156103fe57600080fd5b5061041960048036038101906104149190613ecb565b6111d5565b005b61043560048036038101906104309190613b50565b611272565b005b34801561044357600080fd5b5061044c6113e7565b60405161045991906135dc565b60405180910390f35b34801561046e57600080fd5b5061048960048036038101906104849190613f56565b6113f3565b005b34801561049757600080fd5b506104b260048036038101906104ad9190613841565b611409565b005b3480156104c057600080fd5b506104db60048036038101906104d69190614047565b6115ab565b6040516104e89190614132565b60405180910390f35b3480156104fd57600080fd5b5061051860048036038101906105139190613841565b6115c3565b60405161052591906135dc565b60405180910390f35b34801561053a57600080fd5b506105556004803603810190610550919061358d565b6115e0565b005b34801561056357600080fd5b5061057e6004803603810190610579919061414d565b611811565b005b34801561058c57600080fd5b506105a760048036038101906105a2919061417a565b611882565b6040516105b49190613697565b60405180910390f35b3480156105c957600080fd5b506105e460048036038101906105df91906141ba565b611916565b6040516105f19190614132565b60405180910390f35b34801561060657600080fd5b50610621600480360381019061061c9190614254565b611945565b005b34801561062f57600080fd5b5061064a600480360381019061064591906142eb565b6119e6565b005b61066660048036038101906106619190613841565b611a83565b005b60008073ffffffffffffffffffffffffffffffffffffffff168373ffffffffffffffffffffffffffffffffffffffff1614156106d9576040517f08c379a00000000000000000000000000000000000000000000000000000000081526004016106d0906143b0565b60405180910390fd5b60008083815260200190815260200160002060008473ffffffffffffffffffffffffffffffffffffffff1673ffffffffffffffffffffffffffffffffffffffff16815260200190815260200160002054905092915050565b60007fd9b67a26000000000000000000000000000000000000000000000000000000007bffffffffffffffffffffffffffffffffffffffffffffffffffffffff1916827bffffffffffffffffffffffffffffffffffffffffffffffffffffffff191614806107fc57507f0e89341c000000000000000000000000000000000000000000000000000000007bffffffffffffffffffffffffffffffffffffffffffffffffffffffff1916827bffffffffffffffffffffffffffffffffffffffffffffffffffffffff1916145b8061080c575061080b82611e65565b5b9050919050565b600460009054906101000a900473ffffffffffffffffffffffffffffffffffffffff1673ffffffffffffffffffffffffffffffffffffffff163373ffffffffffffffffffffffffffffffffffffffff16146108a3576040517f08c379a000000000000000000000000000000000000000000000000000000000815260040161089a9061441c565b60405180910390fd5b6108ac81611ecf565b50565b6060600280546108be9061446b565b80601f01602080910402602001604051908101604052809291908181526020018280546108ea9061446b565b80156109375780601f1061090c57610100808354040283529160200191610937565b820191906000526020600020905b81548152906001019060200180831161091a57829003601f168201915b50505050509050919050565b60088060000154905081565b600161095b3383610668565b1461099b576040517f08c379a0000000000000000000000000000000000000000000000000000000008152600401610992906144e9565b60405180910390fd5b6109e033600560009054906101000a900473ffffffffffffffffffffffffffffffffffffffff1660096000858152602001908152602001600020600301546001611056565b600560009054906101000a900473ffffffffffffffffffffffffffffffffffffffff1673ffffffffffffffffffffffffffffffffffffffff1663702fd2003383600960008681526020019081526020016000206002015460016040518563ffffffff1660e01b8152600401610a58949392919061454e565b600060405180830381600087803b158015610a7257600080fd5b505af1158015610a86573d6000803e3d6000fd5b5050505050565b610a95611ee9565b73ffffffffffffffffffffffffffffffffffffffff168573ffffffffffffffffffffffffffffffffffffffff161480610adb5750610ada85610ad5611ee9565b611882565b5b610b1a576040517f08c379a0000000000000000000000000000000000000000000000000000000008152600401610b1190614605565b60405180910390fd5b610b278585858585611ef1565b5050505050565b816000610b3b3383610668565b11610b7b576040517f08c379a0000000000000000000000000000000000000000000000000000000008152600401610b7290614671565b60405180910390fd5b610b8483611042565b610bc3576040517f08c379a0000000000000000000000000000000000000000000000000000000008152600401610bba906146dd565b60405180910390fd5b60006009600085815260200190815260200160002060405180610120016040529081600082015481526020016001820160009054906101000a900473ffffffffffffffffffffffffffffffffffffffff1673ffffffffffffffffffffffffffffffffffffffff1673ffffffffffffffffffffffffffffffffffffffff1681526020016002820154815260200160038201548152602001600482015481526020016005820154815260200160068201805480602002602001604051908101604052809291908181526020018280548015610cf157602002820191906000526020600020905b8160009054906101000a900473ffffffffffffffffffffffffffffffffffffffff1673ffffffffffffffffffffffffffffffffffffffff1681526020019060010190808311610ca7575b50505050508152602001600782015481526020016008820160009054906101000a900460ff161515151581525050905060008160000151600a610d346008612213565b610d3e919061472c565b610d489190614786565b9050610d698260200151828660405180602001604052806000815250612221565b610d8e8260200151308460000151600160405180602001604052806000815250611945565b838260a0018181525050838260800181815250508082606001818152505030826020019073ffffffffffffffffffffffffffffffffffffffff16908173ffffffffffffffffffffffffffffffffffffffff168152505081608001518260400151610df8919061480b565b8260e001818152505081600960008781526020019081526020016000206000820151816000015560208201518160010160006101000a81548173ffffffffffffffffffffffffffffffffffffffff021916908373ffffffffffffffffffffffffffffffffffffffff16021790555060408201518160020155606082015181600301556080820151816004015560a0820151816005015560c0820151816006019080519060200190610eaa929190613354565b5060e082015181600701556101008201518160080160006101000a81548160ff021916908315150217905550905050610ee36008611e4f565b7fcab8131d4cfeace0ddfb348da2236913d2232617e8ebac22af5e358ee961002a82602001518686604051610f1a9392919061483c565b60405180910390a15050505050565b60608151835114610f6f576040517f08c379a0000000000000000000000000000000000000000000000000000000008152600401610f66906148e5565b60405180910390fd5b6000835167ffffffffffffffff811115610f8c57610f8b6136cd565b5b604051908082528060200260200182016040528015610fba5781602001602082028036833780820191505090505b50905060005b845181101561103757611007858281518110610fdf57610fde614905565b5b6020026020010151858381518110610ffa57610ff9614905565b5b6020026020010151610668565b82828151811061101a57611019614905565b5b6020026020010181815250508061103090614934565b9050610fc0565b508091505092915050565b60008061104e836115c3565b119050919050565b6110618484836123d2565b80156110be57826006600084815260200190815260200160002060006101000a81548173ffffffffffffffffffffffffffffffffffffffff021916908373ffffffffffffffffffffffffffffffffffffffff1602179055506110f5565b6006600083815260200190815260200160002060006101000a81549073ffffffffffffffffffffffffffffffffffffffff02191690555b8273ffffffffffffffffffffffffffffffffffffffff168473ffffffffffffffffffffffffffffffffffffffff167f17307eab39ab6107e8899845ad3d59bd9653f200f220920489ca2b5937696c31836040516111529190613697565b60405180910390a350505050565b60096020528060005260406000206000915090508060000154908060010160009054906101000a900473ffffffffffffffffffffffffffffffffffffffff16908060020154908060030154908060040154908060050154908060070154908060080160009054906101000a900460ff16905088565b6111dd611ee9565b73ffffffffffffffffffffffffffffffffffffffff168373ffffffffffffffffffffffffffffffffffffffff16148061122357506112228361121d611ee9565b611882565b5b611262576040517f08c379a000000000000000000000000000000000000000000000000000000000815260040161125990614605565b60405180910390fd5b61126d83838361253f565b505050565b80611293336009600086815260200190815260200160002060030154610668565b10156112d4576040517f08c379a00000000000000000000000000000000000000000000000000000000081526004016112cb906144e9565b60405180910390fd5b61131933600560009054906101000a900473ffffffffffffffffffffffffffffffffffffffff1660096000868152602001908152602001600020600301546001611056565b600560009054906101000a900473ffffffffffffffffffffffffffffffffffffffff1673ffffffffffffffffffffffffffffffffffffffff1663702fd200336009600086815260200190815260200160002060030154846009600088815260200190815260200160002060070154611391919061472c565b856040518563ffffffff1660e01b81526004016113b1949392919061497d565b600060405180830381600087803b1580156113cb57600080fd5b505af11580156113df573d6000803e3d6000fd5b505050505050565b60078060000154905081565b6114056113fe611ee9565b83836123d2565b5050565b60006009600083815260200190815260200160002060405180610120016040529081600082015481526020016001820160009054906101000a900473ffffffffffffffffffffffffffffffffffffffff1673ffffffffffffffffffffffffffffffffffffffff1673ffffffffffffffffffffffffffffffffffffffff168152602001600282015481526020016003820154815260200160048201548152602001600582015481526020016006820180548060200260200160405190810160405280929190818152602001828054801561153757602002820191906000526020600020905b8160009054906101000a900473ffffffffffffffffffffffffffffffffffffffff1673ffffffffffffffffffffffffffffffffffffffff16815260200190600101908083116114ed575b50505050508152602001600782015481526020016008820160009054906101000a900460ff16151515158152505090506000611577338360600151610668565b9050611599333084606001518460405180602001604052806000815250611945565b6115a63033856001611056565b505050565b600063bc197c8160e01b905098975050505050505050565b600060036000838152602001908152602001600020549050919050565b600460009054906101000a900473ffffffffffffffffffffffffffffffffffffffff1673ffffffffffffffffffffffffffffffffffffffff163373ffffffffffffffffffffffffffffffffffffffff1614611670576040517f08c379a00000000000000000000000000000000000000000000000000000000081526004016116679061441c565b60405180910390fd5b6116786133de565b60006116846007612213565b90506116a28482600160405180602001604052806000815250612221565b828260400181815250508082600001818152505083826020019073ffffffffffffffffffffffffffffffffffffffff16908173ffffffffffffffffffffffffffffffffffffffff168152505081600960008381526020019081526020016000206000820151816000015560208201518160010160006101000a81548173ffffffffffffffffffffffffffffffffffffffff021916908373ffffffffffffffffffffffffffffffffffffffff16021790555060408201518160020155606082015181600301556080820151816004015560a0820151816005015560c0820151816006019080519060200190611797929190613354565b5060e082015181600701556101008201518160080160006101000a81548160ff0219169083151502179055509050507fef4b2af7e88b309dc4d7dcc681a19050bf4542c4973eec501e3460b96905d0e48482856040516117f99392919061483c565b60405180910390a161180b6007611e4f565b50505050565b80600560006101000a81548173ffffffffffffffffffffffffffffffffffffffff021916908373ffffffffffffffffffffffffffffffffffffffff16021790555061187f600560009054906101000a900473ffffffffffffffffffffffffffffffffffffffff1660016113f3565b50565b6000600160008473ffffffffffffffffffffffffffffffffffffffff1673ffffffffffffffffffffffffffffffffffffffff16815260200190815260200160002060008373ffffffffffffffffffffffffffffffffffffffff1673ffffffffffffffffffffffffffffffffffffffff16815260200190815260200160002060009054906101000a900460ff16905092915050565b60007ff23a6e612e1ff4830e658fe43f4e3cb4a5f8170bd5d9e69fb5d7a7fa9e4fdf9790509695505050505050565b61194d611ee9565b73ffffffffffffffffffffffffffffffffffffffff168573ffffffffffffffffffffffffffffffffffffffff16148061199357506119928561198d611ee9565b611882565b5b6119d2576040517f08c379a00000000000000000000000000000000000000000000000000000000081526004016119c990614605565b60405180910390fd5b6119df858585858561280e565b5050505050565b6119ee611ee9565b73ffffffffffffffffffffffffffffffffffffffff168373ffffffffffffffffffffffffffffffffffffffff161480611a345750611a3383611a2e611ee9565b611882565b5b611a73576040517f08c379a0000000000000000000000000000000000000000000000000000000008152600401611a6a90614605565b60405180910390fd5b611a7e838383612aaa565b505050565b60006009600083815260200190815260200160002060405180610120016040529081600082015481526020016001820160009054906101000a900473ffffffffffffffffffffffffffffffffffffffff1673ffffffffffffffffffffffffffffffffffffffff1673ffffffffffffffffffffffffffffffffffffffff1681526020016002820154815260200160038201548152602001600482015481526020016005820154815260200160068201805480602002602001604051908101604052809291908181526020018280548015611bb157602002820191906000526020600020905b8160009054906101000a900473ffffffffffffffffffffffffffffffffffffffff1673ffffffffffffffffffffffffffffffffffffffff1681526020019060010190808311611b67575b50505050508152602001600782015481526020016008820160009054906101000a900460ff16151515158152505090503373ffffffffffffffffffffffffffffffffffffffff166006600084815260200190815260200160002060009054906101000a900473ffffffffffffffffffffffffffffffffffffffff1673ffffffffffffffffffffffffffffffffffffffff1614611c82576040517f08c379a0000000000000000000000000000000000000000000000000000000008152600401611c7990614a34565b60405180910390fd5b611c8f81606001516115c3565b611c9d308360600151610668565b14611cdd576040517f08c379a0000000000000000000000000000000000000000000000000000000008152600401611cd490614ac6565b60405180910390fd5b611cfa303384600160405180602001604052806000815250611945565b611d0d30826060015183608001516119e6565b6000816060018181525050600081608001818152505060008160a001818152505033816020019073ffffffffffffffffffffffffffffffffffffffff16908173ffffffffffffffffffffffffffffffffffffffff168152505080600960008481526020019081526020016000206000820151816000015560208201518160010160006101000a81548173ffffffffffffffffffffffffffffffffffffffff021916908373ffffffffffffffffffffffffffffffffffffffff16021790555060408201518160020155606082015181600301556080820151816004015560a0820151816005015560c0820151816006019080519060200190611e0f929190613354565b5060e082015181600701556101008201518160080160006101000a81548160ff021916908315150217905550905050611e4b3033846000611056565b5050565b6001816000016000828254019250508190555050565b60007f01ffc9a7000000000000000000000000000000000000000000000000000000007bffffffffffffffffffffffffffffffffffffffffffffffffffffffff1916827bffffffffffffffffffffffffffffffffffffffffffffffffffffffff1916149050919050565b8060029080519060200190611ee5929190613442565b5050565b600033905090565b8151835114611f35576040517f08c379a0000000000000000000000000000000000000000000000000000000008152600401611f2c90614b58565b60405180910390fd5b600073ffffffffffffffffffffffffffffffffffffffff168473ffffffffffffffffffffffffffffffffffffffff161415611fa5576040517f08c379a0000000000000000000000000000000000000000000000000000000008152600401611f9c90614bea565b60405180910390fd5b6000611faf611ee9565b9050611fbf818787878787612cf1565b60005b8451811015612170576000858281518110611fe057611fdf614905565b5b602002602001015190506000858381518110611fff57611ffe614905565b5b60200260200101519050600080600084815260200190815260200160002060008b73ffffffffffffffffffffffffffffffffffffffff1673ffffffffffffffffffffffffffffffffffffffff168152602001908152602001600020549050818110156120a0576040517f08c379a000000000000000000000000000000000000000000000000000000000815260040161209790614c7c565b60405180910390fd5b81810360008085815260200190815260200160002060008c73ffffffffffffffffffffffffffffffffffffffff1673ffffffffffffffffffffffffffffffffffffffff168152602001908152602001600020819055508160008085815260200190815260200160002060008b73ffffffffffffffffffffffffffffffffffffffff1673ffffffffffffffffffffffffffffffffffffffff16815260200190815260200160002060008282546121559190614786565b925050819055505050508061216990614934565b9050611fc2565b508473ffffffffffffffffffffffffffffffffffffffff168673ffffffffffffffffffffffffffffffffffffffff168273ffffffffffffffffffffffffffffffffffffffff167f4a39dc06d4c0dbc64b70af90fd698a233a518aa5d07e595d983b8c0526c8f7fb87876040516121e7929190614c9c565b60405180910390a46121fd818787878787612d07565b61220b818787878787612d0f565b505050505050565b600081600001549050919050565b600073ffffffffffffffffffffffffffffffffffffffff168473ffffffffffffffffffffffffffffffffffffffff161415612291576040517f08c379a000000000000000000000000000000000000000000000000000000000815260040161228890614d45565b60405180910390fd5b600061229b611ee9565b905060006122a885612ef6565b905060006122b585612ef6565b90506122c683600089858589612cf1565b8460008088815260200190815260200160002060008973ffffffffffffffffffffffffffffffffffffffff1673ffffffffffffffffffffffffffffffffffffffff16815260200190815260200160002060008282546123259190614786565b925050819055508673ffffffffffffffffffffffffffffffffffffffff16600073ffffffffffffffffffffffffffffffffffffffff168473ffffffffffffffffffffffffffffffffffffffff167fc3d58168c5ae7397731d063d5bbf3d657854427343f4c083240f7aacaa2d0f6289896040516123a3929190614d65565b60405180910390a46123ba83600089858589612d07565b6123c983600089898989612f70565b50505050505050565b8173ffffffffffffffffffffffffffffffffffffffff168373ffffffffffffffffffffffffffffffffffffffff161415612441576040517f08c379a000000000000000000000000000000000000000000000000000000000815260040161243890614e00565b60405180910390fd5b80600160008573ffffffffffffffffffffffffffffffffffffffff1673ffffffffffffffffffffffffffffffffffffffff16815260200190815260200160002060008473ffffffffffffffffffffffffffffffffffffffff1673ffffffffffffffffffffffffffffffffffffffff16815260200190815260200160002060006101000a81548160ff0219169083151502179055508173ffffffffffffffffffffffffffffffffffffffff168373ffffffffffffffffffffffffffffffffffffffff167f17307eab39ab6107e8899845ad3d59bd9653f200f220920489ca2b5937696c31836040516125329190613697565b60405180910390a3505050565b600073ffffffffffffffffffffffffffffffffffffffff168373ffffffffffffffffffffffffffffffffffffffff1614156125af576040517f08c379a00000000000000000000000000000000000000000000000000000000081526004016125a690614e92565b60405180910390fd5b80518251146125f3576040517f08c379a00000000000000000000000000000000000000000000000000000000081526004016125ea90614b58565b60405180910390fd5b60006125fd611ee9565b905061261d81856000868660405180602001604052806000815250612cf1565b60005b835181101561276a57600084828151811061263e5761263d614905565b5b60200260200101519050600084838151811061265d5761265c614905565b5b60200260200101519050600080600084815260200190815260200160002060008973ffffffffffffffffffffffffffffffffffffffff1673ffffffffffffffffffffffffffffffffffffffff168152602001908152602001600020549050818110156126fe576040517f08c379a00000000000000000000000000000000000000000000000000000000081526004016126f590614f24565b60405180910390fd5b81810360008085815260200190815260200160002060008a73ffffffffffffffffffffffffffffffffffffffff1673ffffffffffffffffffffffffffffffffffffffff16815260200190815260200160002081905550505050808061276290614934565b915050612620565b50600073ffffffffffffffffffffffffffffffffffffffff168473ffffffffffffffffffffffffffffffffffffffff168273ffffffffffffffffffffffffffffffffffffffff167f4a39dc06d4c0dbc64b70af90fd698a233a518aa5d07e595d983b8c0526c8f7fb86866040516127e2929190614c9c565b60405180910390a461280881856000868660405180602001604052806000815250612d07565b50505050565b600073ffffffffffffffffffffffffffffffffffffffff168473ffffffffffffffffffffffffffffffffffffffff16141561287e576040517f08c379a000000000000000000000000000000000000000000000000000000000815260040161287590614bea565b60405180910390fd5b6000612888611ee9565b9050600061289585612ef6565b905060006128a285612ef6565b90506128b2838989858589612cf1565b600080600088815260200190815260200160002060008a73ffffffffffffffffffffffffffffffffffffffff1673ffffffffffffffffffffffffffffffffffffffff16815260200190815260200160002054905085811015612949576040517f08c379a000000000000000000000000000000000000000000000000000000000815260040161294090614c7c565b60405180910390fd5b85810360008089815260200190815260200160002060008b73ffffffffffffffffffffffffffffffffffffffff1673ffffffffffffffffffffffffffffffffffffffff168152602001908152602001600020819055508560008089815260200190815260200160002060008a73ffffffffffffffffffffffffffffffffffffffff1673ffffffffffffffffffffffffffffffffffffffff16815260200190815260200160002060008282546129fe9190614786565b925050819055508773ffffffffffffffffffffffffffffffffffffffff168973ffffffffffffffffffffffffffffffffffffffff168573ffffffffffffffffffffffffffffffffffffffff167fc3d58168c5ae7397731d063d5bbf3d657854427343f4c083240f7aacaa2d0f628a8a604051612a7b929190614d65565b60405180910390a4612a91848a8a86868a612d07565b612a9f848a8a8a8a8a612f70565b505050505050505050565b600073ffffffffffffffffffffffffffffffffffffffff168373ffffffffffffffffffffffffffffffffffffffff161415612b1a576040517f08c379a0000000000000000000000000000000000000000000000000000000008152600401612b1190614e92565b60405180910390fd5b6000612b24611ee9565b90506000612b3184612ef6565b90506000612b3e84612ef6565b9050612b5e83876000858560405180602001604052806000815250612cf1565b600080600087815260200190815260200160002060008873ffffffffffffffffffffffffffffffffffffffff1673ffffffffffffffffffffffffffffffffffffffff16815260200190815260200160002054905084811015612bf5576040517f08c379a0000000000000000000000000000000000000000000000000000000008152600401612bec90614f24565b60405180910390fd5b84810360008088815260200190815260200160002060008973ffffffffffffffffffffffffffffffffffffffff1673ffffffffffffffffffffffffffffffffffffffff16815260200190815260200160002081905550600073ffffffffffffffffffffffffffffffffffffffff168773ffffffffffffffffffffffffffffffffffffffff168573ffffffffffffffffffffffffffffffffffffffff167fc3d58168c5ae7397731d063d5bbf3d657854427343f4c083240f7aacaa2d0f628989604051612cc2929190614d65565b60405180910390a4612ce884886000868660405180602001604052806000815250612d07565b50505050505050565b612cff868686868686613157565b505050505050565b505050505050565b612d2e8473ffffffffffffffffffffffffffffffffffffffff16613329565b15612eee578373ffffffffffffffffffffffffffffffffffffffff1663bc197c8187878686866040518663ffffffff1660e01b8152600401612d74959493929190614f99565b602060405180830381600087803b158015612d8e57600080fd5b505af1925050508015612dbf57506040513d601f19601f82011682018060405250810190612dbc9190615016565b60015b612e6557612dcb615050565b806308c379a01415612e285750612de0615072565b80612deb5750612e2a565b806040517f08c379a0000000000000000000000000000000000000000000000000000000008152600401612e1f91906138f6565b60405180910390fd5b505b6040517f08c379a0000000000000000000000000000000000000000000000000000000008152600401612e5c9061517a565b60405180910390fd5b63bc197c8160e01b7bffffffffffffffffffffffffffffffffffffffffffffffffffffffff1916817bffffffffffffffffffffffffffffffffffffffffffffffffffffffff191614612eec576040517f08c379a0000000000000000000000000000000000000000000000000000000008152600401612ee39061520c565b60405180910390fd5b505b505050505050565b60606000600167ffffffffffffffff811115612f1557612f146136cd565b5b604051908082528060200260200182016040528015612f435781602001602082028036833780820191505090505b5090508281600081518110612f5b57612f5a614905565b5b60200260200101818152505080915050919050565b612f8f8473ffffffffffffffffffffffffffffffffffffffff16613329565b1561314f578373ffffffffffffffffffffffffffffffffffffffff1663f23a6e6187878686866040518663ffffffff1660e01b8152600401612fd595949392919061522c565b602060405180830381600087803b158015612fef57600080fd5b505af192505050801561302057506040513d601f19601f8201168201806040525081019061301d9190615016565b60015b6130c65761302c615050565b806308c379a014156130895750613041615072565b8061304c575061308b565b806040517f08c379a000000000000000000000000000000000000000000000000000000000815260040161308091906138f6565b60405180910390fd5b505b6040517f08c379a00000000000000000000000000000000000000000000000000000000081526004016130bd9061517a565b60405180910390fd5b63f23a6e6160e01b7bffffffffffffffffffffffffffffffffffffffffffffffffffffffff1916817bffffffffffffffffffffffffffffffffffffffffffffffffffffffff19161461314d576040517f08c379a00000000000000000000000000000000000000000000000000000000081526004016131449061520c565b60405180910390fd5b505b505050505050565b61316586868686868661334c565b600073ffffffffffffffffffffffffffffffffffffffff168573ffffffffffffffffffffffffffffffffffffffff1614156132175760005b8351811015613215578281815181106131b9576131b8614905565b5b6020026020010151600360008684815181106131d8576131d7614905565b5b6020026020010151815260200190815260200160002060008282546131fd9190614786565b925050819055508061320e90614934565b905061319d565b505b600073ffffffffffffffffffffffffffffffffffffffff168473ffffffffffffffffffffffffffffffffffffffff1614156133215760005b835181101561331f57600084828151811061326d5761326c614905565b5b60200260200101519050600084838151811061328c5761328b614905565b5b60200260200101519050600060036000848152602001908152602001600020549050818110156132f1576040517f08c379a00000000000000000000000000000000000000000000000000000000081526004016132e8906152f8565b60405180910390fd5b81810360036000858152602001908152602001600020819055505050508061331890614934565b905061324f565b505b505050505050565b6000808273ffffffffffffffffffffffffffffffffffffffff163b119050919050565b505050505050565b8280548282559060005260206000209081019282156133cd579160200282015b828111156133cc5782518260006101000a81548173ffffffffffffffffffffffffffffffffffffffff021916908373ffffffffffffffffffffffffffffffffffffffff16021790555091602001919060010190613374565b5b5090506133da91906134c8565b5090565b60405180610120016040528060008152602001600073ffffffffffffffffffffffffffffffffffffffff1681526020016000815260200160008152602001600081526020016000815260200160608152602001600081526020016000151581525090565b82805461344e9061446b565b90600052602060002090601f01602090048101928261347057600085556134b7565b82601f1061348957805160ff19168380011785556134b7565b828001600101855582156134b7579182015b828111156134b657825182559160200191906001019061349b565b5b5090506134c491906134c8565b5090565b5b808211156134e15760008160009055506001016134c9565b5090565b6000604051905090565b600080fd5b600080fd5b600073ffffffffffffffffffffffffffffffffffffffff82169050919050565b6000613524826134f9565b9050919050565b61353481613519565b811461353f57600080fd5b50565b6000813590506135518161352b565b92915050565b6000819050919050565b61356a81613557565b811461357557600080fd5b50565b60008135905061358781613561565b92915050565b600080604083850312156135a4576135a36134ef565b5b60006135b285828601613542565b92505060206135c385828601613578565b9150509250929050565b6135d681613557565b82525050565b60006020820190506135f160008301846135cd565b92915050565b60007fffffffff0000000000000000000000000000000000000000000000000000000082169050919050565b61362c816135f7565b811461363757600080fd5b50565b60008135905061364981613623565b92915050565b600060208284031215613665576136646134ef565b5b60006136738482850161363a565b91505092915050565b60008115159050919050565b6136918161367c565b82525050565b60006020820190506136ac6000830184613688565b92915050565b600080fd5b600080fd5b6000601f19601f8301169050919050565b7f4e487b7100000000000000000000000000000000000000000000000000000000600052604160045260246000fd5b613705826136bc565b810181811067ffffffffffffffff82111715613724576137236136cd565b5b80604052505050565b60006137376134e5565b905061374382826136fc565b919050565b600067ffffffffffffffff821115613763576137626136cd565b5b61376c826136bc565b9050602081019050919050565b82818337600083830152505050565b600061379b61379684613748565b61372d565b9050828152602081018484840111156137b7576137b66136b7565b5b6137c2848285613779565b509392505050565b600082601f8301126137df576137de6136b2565b5b81356137ef848260208601613788565b91505092915050565b60006020828403121561380e5761380d6134ef565b5b600082013567ffffffffffffffff81111561382c5761382b6134f4565b5b613838848285016137ca565b91505092915050565b600060208284031215613857576138566134ef565b5b600061386584828501613578565b91505092915050565b600081519050919050565b600082825260208201905092915050565b60005b838110156138a857808201518184015260208101905061388d565b838111156138b7576000848401525b50505050565b60006138c88261386e565b6138d28185613879565b93506138e281856020860161388a565b6138eb816136bc565b840191505092915050565b6000602082019050818103600083015261391081846138bd565b905092915050565b600067ffffffffffffffff821115613933576139326136cd565b5b602082029050602081019050919050565b600080fd5b600061395c61395784613918565b61372d565b9050808382526020820190506020840283018581111561397f5761397e613944565b5b835b818110156139a857806139948882613578565b845260208401935050602081019050613981565b5050509392505050565b600082601f8301126139c7576139c66136b2565b5b81356139d7848260208601613949565b91505092915050565b600067ffffffffffffffff8211156139fb576139fa6136cd565b5b613a04826136bc565b9050602081019050919050565b6000613a24613a1f846139e0565b61372d565b905082815260208101848484011115613a4057613a3f6136b7565b5b613a4b848285613779565b509392505050565b600082601f830112613a6857613a676136b2565b5b8135613a78848260208601613a11565b91505092915050565b600080600080600060a08688031215613a9d57613a9c6134ef565b5b6000613aab88828901613542565b9550506020613abc88828901613542565b945050604086013567ffffffffffffffff811115613add57613adc6134f4565b5b613ae9888289016139b2565b935050606086013567ffffffffffffffff811115613b0a57613b096134f4565b5b613b16888289016139b2565b925050608086013567ffffffffffffffff811115613b3757613b366134f4565b5b613b4388828901613a53565b9150509295509295909350565b60008060408385031215613b6757613b666134ef565b5b6000613b7585828601613578565b9250506020613b8685828601613578565b9150509250929050565b600067ffffffffffffffff821115613bab57613baa6136cd565b5b602082029050602081019050919050565b6000613bcf613bca84613b90565b61372d565b90508083825260208201905060208402830185811115613bf257613bf1613944565b5b835b81811015613c1b5780613c078882613542565b845260208401935050602081019050613bf4565b5050509392505050565b600082601f830112613c3a57613c396136b2565b5b8135613c4a848260208601613bbc565b91505092915050565b60008060408385031215613c6a57613c696134ef565b5b600083013567ffffffffffffffff811115613c8857613c876134f4565b5b613c9485828601613c25565b925050602083013567ffffffffffffffff811115613cb557613cb46134f4565b5b613cc1858286016139b2565b9150509250929050565b600081519050919050565b600082825260208201905092915050565b6000819050602082019050919050565b613d0081613557565b82525050565b6000613d128383613cf7565b60208301905092915050565b6000602082019050919050565b6000613d3682613ccb565b613d408185613cd6565b9350613d4b83613ce7565b8060005b83811015613d7c578151613d638882613d06565b9750613d6e83613d1e565b925050600181019050613d4f565b5085935050505092915050565b60006020820190508181036000830152613da38184613d2b565b905092915050565b613db48161367c565b8114613dbf57600080fd5b50565b600081359050613dd181613dab565b92915050565b60008060008060808587031215613df157613df06134ef565b5b6000613dff87828801613542565b9450506020613e1087828801613542565b9350506040613e2187828801613578565b9250506060613e3287828801613dc2565b91505092959194509250565b613e4781613519565b82525050565b600061010082019050613e63600083018b6135cd565b613e70602083018a613e3e565b613e7d60408301896135cd565b613e8a60608301886135cd565b613e9760808301876135cd565b613ea460a08301866135cd565b613eb160c08301856135cd565b613ebe60e0830184613688565b9998505050505050505050565b600080600060608486031215613ee457613ee36134ef565b5b6000613ef286828701613542565b935050602084013567ffffffffffffffff811115613f1357613f126134f4565b5b613f1f868287016139b2565b925050604084013567ffffffffffffffff811115613f4057613f3f6134f4565b5b613f4c868287016139b2565b9150509250925092565b60008060408385031215613f6d57613f6c6134ef565b5b6000613f7b85828601613542565b9250506020613f8c85828601613dc2565b9150509250929050565b600080fd5b60008083601f840112613fb157613fb06136b2565b5b8235905067ffffffffffffffff811115613fce57613fcd613f96565b5b602083019150836020820283011115613fea57613fe9613944565b5b9250929050565b60008083601f840112614007576140066136b2565b5b8235905067ffffffffffffffff81111561402457614023613f96565b5b6020830191508360018202830111156140405761403f613944565b5b9250929050565b60008060008060008060008060a0898b031215614067576140666134ef565b5b60006140758b828c01613542565b98505060206140868b828c01613542565b975050604089013567ffffffffffffffff8111156140a7576140a66134f4565b5b6140b38b828c01613f9b565b9650965050606089013567ffffffffffffffff8111156140d6576140d56134f4565b5b6140e28b828c01613f9b565b9450945050608089013567ffffffffffffffff811115614105576141046134f4565b5b6141118b828c01613ff1565b92509250509295985092959890939650565b61412c816135f7565b82525050565b60006020820190506141476000830184614123565b92915050565b600060208284031215614163576141626134ef565b5b600061417184828501613542565b91505092915050565b60008060408385031215614191576141906134ef565b5b600061419f85828601613542565b92505060206141b085828601613542565b9150509250929050565b60008060008060008060a087890312156141d7576141d66134ef565b5b60006141e589828a01613542565b96505060206141f689828a01613542565b955050604061420789828a01613578565b945050606061421889828a01613578565b935050608087013567ffffffffffffffff811115614239576142386134f4565b5b61424589828a01613ff1565b92509250509295509295509295565b600080600080600060a086880312156142705761426f6134ef565b5b600061427e88828901613542565b955050602061428f88828901613542565b94505060406142a088828901613578565b93505060606142b188828901613578565b925050608086013567ffffffffffffffff8111156142d2576142d16134f4565b5b6142de88828901613a53565b9150509295509295909350565b600080600060608486031215614304576143036134ef565b5b600061431286828701613542565b935050602061432386828701613578565b925050604061433486828701613578565b9150509250925092565b7f455243313135353a2061646472657373207a65726f206973206e6f742061207660008201527f616c6964206f776e657200000000000000000000000000000000000000000000602082015250565b600061439a602a83613879565b91506143a58261433e565b604082019050919050565b600060208201905081810360008301526143c98161438d565b9050919050565b7f45524331313535203a2043616c6c6572206973206e6f742041646d696e000000600082015250565b6000614406601d83613879565b9150614411826143d0565b602082019050919050565b60006020820190508181036000830152614435816143f9565b9050919050565b7f4e487b7100000000000000000000000000000000000000000000000000000000600052602260045260246000fd5b6000600282049050600182168061448357607f821691505b602082108114156144975761449661443c565b5b50919050565b7f4e6f7420656e6f75676820746f6b656e732e0000000000000000000000000000600082015250565b60006144d3601283613879565b91506144de8261449d565b602082019050919050565b60006020820190508181036000830152614502816144c6565b9050919050565b6000819050919050565b6000819050919050565b600061453861453361452e84614509565b614513565b613557565b9050919050565b6145488161451d565b82525050565b60006080820190506145636000830187613e3e565b61457060208301866135cd565b61457d60408301856135cd565b61458a606083018461453f565b95945050505050565b7f455243313135353a2063616c6c6572206973206e6f7420746f6b656e206f776e60008201527f6572206f7220617070726f766564000000000000000000000000000000000000602082015250565b60006145ef602e83613879565b91506145fa82614593565b604082019050919050565b6000602082019050818103600083015261461e816145e2565b9050919050565b7f45524331313535203a2043616c6c6572206973206e6f74206f776e6572000000600082015250565b600061465b601d83613879565b915061466682614625565b602082019050919050565b6000602082019050818103600083015261468a8161464e565b9050919050565b7f496e76616c696420546f6b656e20496400000000000000000000000000000000600082015250565b60006146c7601083613879565b91506146d282614691565b602082019050919050565b600060208201905081810360008301526146f6816146ba565b9050919050565b7f4e487b7100000000000000000000000000000000000000000000000000000000600052601160045260246000fd5b600061473782613557565b915061474283613557565b9250817fffffffffffffffffffffffffffffffffffffffffffffffffffffffffffffffff048311821515161561477b5761477a6146fd565b5b828202905092915050565b600061479182613557565b915061479c83613557565b9250827fffffffffffffffffffffffffffffffffffffffffffffffffffffffffffffffff038211156147d1576147d06146fd565b5b828201905092915050565b7f4e487b7100000000000000000000000000000000000000000000000000000000600052601260045260246000fd5b600061481682613557565b915061482183613557565b925082614831576148306147dc565b5b828204905092915050565b60006060820190506148516000830186613e3e565b61485e60208301856135cd565b61486b60408301846135cd565b949350505050565b7f455243313135353a206163636f756e747320616e6420696473206c656e67746860008201527f206d69736d617463680000000000000000000000000000000000000000000000602082015250565b60006148cf602983613879565b91506148da82614873565b604082019050919050565b600060208201905081810360008301526148fe816148c2565b9050919050565b7f4e487b7100000000000000000000000000000000000000000000000000000000600052603260045260246000fd5b600061493f82613557565b91507fffffffffffffffffffffffffffffffffffffffffffffffffffffffffffffffff821415614972576149716146fd565b5b600182019050919050565b60006080820190506149926000830187613e3e565b61499f60208301866135cd565b6149ac60408301856135cd565b6149b960608301846135cd565b95945050505050565b7f43616c6c6572206973206e6f7420617070726f76656420666f7220746869732060008201527f746f6b656e2e0000000000000000000000000000000000000000000000000000602082015250565b6000614a1e602683613879565b9150614a29826149c2565b604082019050919050565b60006020820190508181036000830152614a4d81614a11565b9050919050565b7f4e6f7420616c6c206672616374696f6e73206f6620746f6b656e20617265206460008201527f65706f73697465642e0000000000000000000000000000000000000000000000602082015250565b6000614ab0602983613879565b9150614abb82614a54565b604082019050919050565b60006020820190508181036000830152614adf81614aa3565b9050919050565b7f455243313135353a2069647320616e6420616d6f756e7473206c656e6774682060008201527f6d69736d61746368000000000000000000000000000000000000000000000000602082015250565b6000614b42602883613879565b9150614b4d82614ae6565b604082019050919050565b60006020820190508181036000830152614b7181614b35565b9050919050565b7f455243313135353a207472616e7366657220746f20746865207a65726f20616460008201527f6472657373000000000000000000000000000000000000000000000000000000602082015250565b6000614bd4602583613879565b9150614bdf82614b78565b604082019050919050565b60006020820190508181036000830152614c0381614bc7565b9050919050565b7f455243313135353a20696e73756666696369656e742062616c616e636520666f60008201527f72207472616e7366657200000000000000000000000000000000000000000000602082015250565b6000614c66602a83613879565b9150614c7182614c0a565b604082019050919050565b60006020820190508181036000830152614c9581614c59565b9050919050565b60006040820190508181036000830152614cb68185613d2b565b90508181036020830152614cca8184613d2b565b90509392505050565b7f455243313135353a206d696e7420746f20746865207a65726f2061646472657360008201527f7300000000000000000000000000000000000000000000000000000000000000602082015250565b6000614d2f602183613879565b9150614d3a82614cd3565b604082019050919050565b60006020820190508181036000830152614d5e81614d22565b9050919050565b6000604082019050614d7a60008301856135cd565b614d8760208301846135cd565b9392505050565b7f455243313135353a2073657474696e6720617070726f76616c2073746174757360008201527f20666f722073656c660000000000000000000000000000000000000000000000602082015250565b6000614dea602983613879565b9150614df582614d8e565b604082019050919050565b60006020820190508181036000830152614e1981614ddd565b9050919050565b7f455243313135353a206275726e2066726f6d20746865207a65726f206164647260008201527f6573730000000000000000000000000000000000000000000000000000000000602082015250565b6000614e7c602383613879565b9150614e8782614e20565b604082019050919050565b60006020820190508181036000830152614eab81614e6f565b9050919050565b7f455243313135353a206275726e20616d6f756e7420657863656564732062616c60008201527f616e636500000000000000000000000000000000000000000000000000000000602082015250565b6000614f0e602483613879565b9150614f1982614eb2565b604082019050919050565b60006020820190508181036000830152614f3d81614f01565b9050919050565b600081519050919050565b600082825260208201905092915050565b6000614f6b82614f44565b614f758185614f4f565b9350614f8581856020860161388a565b614f8e816136bc565b840191505092915050565b600060a082019050614fae6000830188613e3e565b614fbb6020830187613e3e565b8181036040830152614fcd8186613d2b565b90508181036060830152614fe18185613d2b565b90508181036080830152614ff58184614f60565b90509695505050505050565b60008151905061501081613623565b92915050565b60006020828403121561502c5761502b6134ef565b5b600061503a84828501615001565b91505092915050565b60008160e01c9050919050565b600060033d111561506f5760046000803e61506c600051615043565b90505b90565b600060443d101561508257615105565b61508a6134e5565b60043d036004823e80513d602482011167ffffffffffffffff821117156150b2575050615105565b808201805167ffffffffffffffff8111156150d05750505050615105565b80602083010160043d0385018111156150ed575050505050615105565b6150fc826020018501866136fc565b82955050505050505b90565b7f455243313135353a207472616e7366657220746f206e6f6e2d4552433131353560008201527f526563656976657220696d706c656d656e746572000000000000000000000000602082015250565b6000615164603483613879565b915061516f82615108565b604082019050919050565b6000602082019050818103600083015261519381615157565b9050919050565b7f455243313135353a204552433131353552656365697665722072656a6563746560008201527f6420746f6b656e73000000000000000000000000000000000000000000000000602082015250565b60006151f6602883613879565b91506152018261519a565b604082019050919050565b60006020820190508181036000830152615225816151e9565b9050919050565b600060a0820190506152416000830188613e3e565b61524e6020830187613e3e565b61525b60408301866135cd565b61526860608301856135cd565b818103608083015261527a8184614f60565b90509695505050505050565b7f455243313135353a206275726e20616d6f756e74206578636565647320746f7460008201527f616c537570706c79000000000000000000000000000000000000000000000000602082015250565b60006152e2602883613879565b91506152ed82615286565b604082019050919050565b60006020820190508181036000830152615311816152d5565b905091905056fea2646970667358221220c3336de02113c77466daa1824e2bb537593ed9e870b99bb653a9305bb81f1c1a64736f6c63430008090033",
  "immutableReferences": {},
  "source": "// SPDX-License-Identifier: MIT\r\npragma solidity ^0.8.9;\r\n\r\nimport \"@openzeppelin/contracts/token/ERC1155/ERC1155.sol\";\r\nimport \"@openzeppelin/contracts/utils/Counters.sol\";\r\nimport \"@openzeppelin/contracts/token/ERC1155/extensions/ERC1155Burnable.sol\";\r\nimport \"@openzeppelin/contracts/token/ERC1155/extensions/ERC1155Supply.sol\";\r\nimport \"./Escrow1155.sol\";\r\n\r\ncontract RNFT is ERC1155, ERC1155Burnable, ERC1155Supply, IERC1155Receiver {\r\n    address admin;\r\n    address escrowContract;\r\n\r\n    constructor() ERC1155(\"\") {\r\n        admin = msg.sender;\r\n        _tokenIdCounter.increment();\r\n        _fractionIdCounter.increment();\r\n    }\r\n\r\n    mapping(uint256 => address) private _tokenApprovals;\r\n\r\n    struct Token {\r\n        uint256 id;\r\n        address owner;\r\n        uint256 price;\r\n        uint256 fractionId;\r\n        uint256 totalFractions;\r\n        uint256 fractionsOwned;\r\n        address[] owners;\r\n        uint256 pricePerFraction;\r\n        bool forSale;\r\n    }\r\n\r\n    using Counters for Counters.Counter;\r\n    Counters.Counter public _tokenIdCounter;\r\n    Counters.Counter public _fractionIdCounter;\r\n\r\n    mapping(uint256 => Token) public tokenIdVsToken;\r\n\r\n    event NFTCreated(address to, uint256 tokenId, uint256 price);\r\n    event NFTFractioned(address to, uint256 tokenId, uint256 noOfFractions);\r\n    event FractionsForSale(uint256 tokenId, uint256 noOfFractions);\r\n    event NFTForSale(uint256 tokenId, bool isForSale);\r\n\r\n    function setURI(string memory newuri) public onlyAdmin {\r\n        _setURI(newuri);\r\n    }\r\n\r\n    function createNFT(address to, uint256 price) external onlyAdmin {\r\n        Token memory tempToken;\r\n        uint256 _tokenId = _tokenIdCounter.current();\r\n        _mint(to, _tokenId, 1, \"\");\r\n        tempToken.price = price;\r\n        tempToken.id = _tokenId;\r\n        tempToken.owner = to;\r\n        tokenIdVsToken[_tokenId] = tempToken;\r\n        emit NFTCreated(to, _tokenId, price);\r\n        _tokenIdCounter.increment();\r\n    }\r\n\r\n    function createFractions(\r\n        uint256 _tokenId,\r\n        uint256 _noOfFractions\r\n    ) external onlyOwner(_tokenId) {\r\n        require(exists(_tokenId), \"Invalid Token Id\");\r\n        Token memory tempToken = tokenIdVsToken[_tokenId];\r\n        uint256 fractionId = _fractionIdCounter.current() * 10 + tempToken.id;\r\n        _mint(tempToken.owner, fractionId, _noOfFractions, \"\");\r\n        safeTransferFrom(tempToken.owner, address(this), tempToken.id, 1, \"\");\r\n        tempToken.fractionsOwned = _noOfFractions;\r\n        tempToken.totalFractions = _noOfFractions;\r\n        tempToken.fractionId = fractionId;\r\n        tempToken.owner = address(this);\r\n        tempToken.pricePerFraction = tempToken.price / tempToken.totalFractions;\r\n        tokenIdVsToken[_tokenId] = tempToken;\r\n        _fractionIdCounter.increment();\r\n        emit NFTFractioned(tempToken.owner, _tokenId, _noOfFractions);\r\n    }\r\n\r\n    function claimNFT(uint256 _tokenId) external payable {\r\n        Token memory tempToken = tokenIdVsToken[_tokenId];\r\n        require(\r\n            _tokenApprovals[_tokenId] == msg.sender,\r\n            \"Caller is not approved for this token.\"\r\n        );\r\n        require(\r\n            balanceOf(address(this), tempToken.fractionId) ==\r\n                totalSupply(tempToken.fractionId),\r\n            \"Not all fractions of token are deposited.\"\r\n        );\r\n        safeTransferFrom(address(this), msg.sender, _tokenId, 1, \"\");\r\n        burn(address(this), tempToken.fractionId, tempToken.totalFractions);\r\n        tempToken.fractionId = 0;\r\n        tempToken.totalFractions = 0;\r\n        tempToken.fractionsOwned = 0;\r\n        tempToken.owner = msg.sender;\r\n        tokenIdVsToken[_tokenId] = tempToken;\r\n        setApproval(address(this), msg.sender, _tokenId, false);\r\n    }\r\n\r\n    function depositeFractions(uint256 _tokenId) external {\r\n        Token memory tempToken = tokenIdVsToken[_tokenId];\r\n        uint256 amount = balanceOf(msg.sender, tempToken.fractionId);\r\n        safeTransferFrom(\r\n            msg.sender,\r\n            address(this),\r\n            tempToken.fractionId,\r\n            amount,\r\n            \"\"\r\n        );\r\n        setApproval(address(this), msg.sender, _tokenId, true);\r\n    }\r\n\r\n    function sellToken(uint256 _tokenId) public {\r\n        require(balanceOf(msg.sender, _tokenId) == 1, \"Not enough tokens.\");\r\n        setApproval(\r\n            msg.sender,\r\n            escrowContract,\r\n            tokenIdVsToken[_tokenId].fractionId,\r\n            true\r\n        );\r\n        Escrow1155(escrowContract).depositToken(\r\n            msg.sender,\r\n            _tokenId,\r\n            tokenIdVsToken[_tokenId].price,\r\n            1\r\n        );\r\n    }\r\n\r\n    function sellFractions(\r\n        uint256 _tokenId,\r\n        uint256 _noOfTokens\r\n    ) public payable {\r\n        require(\r\n            balanceOf(msg.sender, tokenIdVsToken[_tokenId].fractionId) >=\r\n                _noOfTokens,\r\n            \"Not enough tokens.\"\r\n        );\r\n        setApproval(\r\n            msg.sender,\r\n            escrowContract,\r\n            tokenIdVsToken[_tokenId].fractionId,\r\n            true\r\n        );\r\n        Escrow1155(escrowContract).depositToken(\r\n            msg.sender,\r\n            tokenIdVsToken[_tokenId].fractionId,\r\n            tokenIdVsToken[_tokenId].pricePerFraction * _noOfTokens,\r\n            _noOfTokens\r\n        );\r\n    }\r\n\r\n    function setEscrowAddress(address _escrowContractAddress) external {\r\n        escrowContract = _escrowContractAddress;\r\n        setApprovalForAll(escrowContract, true);\r\n    }\r\n\r\n    function onERC1155Received(\r\n        address operator,\r\n        address from,\r\n        uint256 id,\r\n        uint256 value,\r\n        bytes calldata data\r\n    ) external pure override returns (bytes4) {\r\n        return\r\n            bytes4(\r\n                keccak256(\r\n                    \"onERC1155Received(address,address,uint256,uint256,bytes)\"\r\n                )\r\n            );\r\n    }\r\n\r\n    function onERC1155BatchReceived(\r\n        address operator,\r\n        address from,\r\n        uint256[] calldata ids,\r\n        uint256[] calldata values,\r\n        bytes calldata data\r\n    ) external pure override returns (bytes4) {\r\n        return this.onERC1155BatchReceived.selector;\r\n    }\r\n\r\n    function setApproval(\r\n        address owner,\r\n        address operator,\r\n        uint256 _tokenId,\r\n        bool approved\r\n    ) public virtual {\r\n        _setApprovalForAll(owner, operator, approved);\r\n        if (approved) {\r\n            _tokenApprovals[_tokenId] = operator;\r\n        } else {\r\n            delete _tokenApprovals[_tokenId];\r\n        }\r\n        emit ApprovalForAll(owner, operator, approved);\r\n    }\r\n\r\n    function _beforeTokenTransfer(\r\n        address operator,\r\n        address from,\r\n        address to,\r\n        uint256[] memory ids,\r\n        uint256[] memory amounts,\r\n        bytes memory data\r\n    ) internal override(ERC1155, ERC1155Supply) {\r\n        super._beforeTokenTransfer(operator, from, to, ids, amounts, data);\r\n    }\r\n\r\n    modifier onlyAdmin() {\r\n        require(msg.sender == admin, \"ERC1155 : Caller is not Admin\");\r\n        _;\r\n    }\r\n\r\n    modifier onlyOwner(uint256 _tokenId) {\r\n        require(\r\n            balanceOf(msg.sender, _tokenId) > 0,\r\n            \"ERC1155 : Caller is not owner\"\r\n        );\r\n        _;\r\n    }\r\n}\r\n",
  "sourcePath": "C:\\Users\\admin\\Desktop\\react\\RealEstateFNFT\\backend\\contracts\\RNFT.sol",
  "compiler": {
    "name": "solc",
    "version": "0.8.9+commit.e5eed63a.Emscripten.clang"
  },
  "schemaVersion": "3.4.3",
  "updatedAt": "2023-07-10T08:33:46.496Z",
  "networkType": "ethereum",
  "devdoc": {
    "kind": "dev",
    "methods": {
      "balanceOf(address,uint256)": {
        "details": "See {IERC1155-balanceOf}. Requirements: - `account` cannot be the zero address."
      },
      "balanceOfBatch(address[],uint256[])": {
        "details": "See {IERC1155-balanceOfBatch}. Requirements: - `accounts` and `ids` must have the same length."
      },
      "exists(uint256)": {
        "details": "Indicates whether any token exist with a given id, or not."
      },
      "isApprovedForAll(address,address)": {
        "details": "See {IERC1155-isApprovedForAll}."
      },
      "onERC1155BatchReceived(address,address,uint256[],uint256[],bytes)": {
        "details": "Handles the receipt of a multiple ERC1155 token types. This function is called at the end of a `safeBatchTransferFrom` after the balances have been updated. NOTE: To accept the transfer(s), this must return `bytes4(keccak256(\"onERC1155BatchReceived(address,address,uint256[],uint256[],bytes)\"))` (i.e. 0xbc197c81, or its own function selector).",
        "params": {
          "data": "Additional data with no specified format",
          "from": "The address which previously owned the token",
          "ids": "An array containing ids of each token being transferred (order and length must match values array)",
          "operator": "The address which initiated the batch transfer (i.e. msg.sender)",
          "values": "An array containing amounts of each token being transferred (order and length must match ids array)"
        },
        "returns": {
          "_0": "`bytes4(keccak256(\"onERC1155BatchReceived(address,address,uint256[],uint256[],bytes)\"))` if transfer is allowed"
        }
      },
      "onERC1155Received(address,address,uint256,uint256,bytes)": {
        "details": "Handles the receipt of a single ERC1155 token type. This function is called at the end of a `safeTransferFrom` after the balance has been updated. NOTE: To accept the transfer, this must return `bytes4(keccak256(\"onERC1155Received(address,address,uint256,uint256,bytes)\"))` (i.e. 0xf23a6e61, or its own function selector).",
        "params": {
          "data": "Additional data with no specified format",
          "from": "The address which previously owned the token",
          "id": "The ID of the token being transferred",
          "operator": "The address which initiated the transfer (i.e. msg.sender)",
          "value": "The amount of tokens being transferred"
        },
        "returns": {
          "_0": "`bytes4(keccak256(\"onERC1155Received(address,address,uint256,uint256,bytes)\"))` if transfer is allowed"
        }
      },
      "safeBatchTransferFrom(address,address,uint256[],uint256[],bytes)": {
        "details": "See {IERC1155-safeBatchTransferFrom}."
      },
      "safeTransferFrom(address,address,uint256,uint256,bytes)": {
        "details": "See {IERC1155-safeTransferFrom}."
      },
      "setApprovalForAll(address,bool)": {
        "details": "See {IERC1155-setApprovalForAll}."
      },
      "supportsInterface(bytes4)": {
        "details": "See {IERC165-supportsInterface}."
      },
      "totalSupply(uint256)": {
        "details": "Total amount of tokens in with a given id."
      },
      "uri(uint256)": {
        "details": "See {IERC1155MetadataURI-uri}. This implementation returns the same URI for *all* token types. It relies on the token type ID substitution mechanism https://eips.ethereum.org/EIPS/eip-1155#metadata[defined in the EIP]. Clients calling this function must replace the `\\{id\\}` substring with the actual token type ID."
      }
    },
    "version": 1
  },
  "userdoc": {
    "kind": "user",
    "methods": {},
    "version": 1
  }
}